:020000040000FA
:10000000A86B0220F53700000D71000025380000B4
:10001000253800002538000025380000253800006C
:100020000000000000000000000000009136000009
:10003000253800000000000049360000F96D00007E
:10004000CD370000CD370000CD370000CD370000A0
:10005000CD370000CD370000CD370000CD37000090
:10006000CD370000CD370000CD370000CD37000080
:10007000CD370000CD370000CD370000CD37000070
:10008000CD370000CD370000CD370000CD37000060
:10009000CD370000CD370000CD370000CD37000050
:1000A000CD370000CD370000CD370000CD37000040
:1000B000CD370000CD370000CD370000CD37000030
:1000C000CD370000CD370000CD370000CD37000020
:1000D000CD370000CD370000CD370000CD37000010
:1000E000CD370000CD370000CD370000CD37000000
:1000F000CD370000CD370000CD370000CD370000F0
:10010000CD370000CD370000CD370000CD370000DF
:10011000CD370000CD370000CD370000CD370000CF
:10012000CD370000CD370000CD370000CD370000BF
:10013000CD370000CD370000CD370000CD370000AF
:10014000CD37000053B94AB9002908BF00281CBFA9
:100150004FF0FF314FF0FF3000F070B9ADF1080CF7
:100160006DE904CE00F006F8DDF804E0DDE90223D5
:1001700004B070472DE9F047089E0D4604468A46B4
:10018000002B7FD18A42174641D9B2FA82F24AB196
:10019000C2F1200105FA02F39740944020FA01F1E0
:1001A00041EA030A4FEA17484FEA144C1FFA87F94D
:1001B000BAFBF8FE08FB1EA30EFB09F14CEA034351
:1001C000994206D9FB1802D2994200F224810EF11D
:1001D000FF3E591AA3B2B1FBF8F008FB101100FB67
:1001E00009F943EA0144A14505D93C1902D2A145C8
:1001F00000F20E810138A4EB090440EA0E40002110
:100200001EB1D4400023C6E90043BDE8F08702B91F
:10021000FFDEB2FA82F2002A4FD1CB1B4FEA174E13
:100220001FFA87F80121250CB3FBFEFC0EFB1C30E6
:100230002B4608FB0CF945EA0045A9450AD97D196A
:100240002CBF01230023A94502D9002B00F0D9803F
:100250000CF1FF3CA5EB0905A3B2B5FBFEF00EFBCC
:10026000105508FB00F843EA0544A04505D93C19A0
:1002700002D2A04500F2C9800138A4EB080440EA8C
:100280000C40BDE78B4208D9002E00F0B180002160
:10029000C6E900050846BDE8F087B3FA83F10029F6
:1002A00046D1AB42C0F0A780824240F2A48008460B
:1002B000002EAAD0C6E9004AA7E7C2F12000974065
:1002C00001FA02F34FEA174EC14024FA00F51FFA73
:1002D00087F894401D43B1FBFEF02B0C0EFB101170
:1002E00000FB08FC43EA01439C4509D9FB182CBFDD
:1002F000012100219C4502D9002900F09580013898
:10030000A3EB0C03ADB2B3FBFEF10EFB113301FB0B
:1003100008FC45EA0345AC4505D97D1902D2AC4538
:1003200000F289800139A5EB0C0341EA00417AE72C
:10033000C1F120048B4002FA01F705FA01FCE2400A
:1003400020FA04F8E54000FA01FE134348EA0C02E3
:100350004FEA13484FEA124C1FFA83F9B5FBF8FA3B
:1003600008FB1A550AFB09F04CEA054C60450AD90E
:1003700013EB0C0C2CBF01250025604501D9002D85
:1003800055D00AF1FF3AACEB000C92B2BCFBF8F08E
:1003900008FB10CC00FB09F942EA0C4CE14505D9F9
:1003A00013EB0C0C01D2E1453BD8013840EA0A407E
:1003B000ACEB090CA0FB0789CC4545464A4602D365
:1003C00006D1C64504D20138B8EB070569EB030234
:1003D0002EB3BEEB05036CEB020C23FA01F20CFA10
:1003E00004F42CFA01F300211443C6E900430CE79E
:1003F0003146304609E7841A65EB030301209A462B
:1004000056E7ACF1020C3D4424E702383C4434E7A3
:1004100002383C44EFE6AEF1020E3B44D9E63146E9
:10042000F3E602389C44C1E702383B4468E7AAF18E
:10043000020A9C44A7E702393D4474E7704700BFB5
:100440002DE9FF41454B464C4649E41AE408A40116
:1004500044F0030006F06EFB00F0D2F8424800F0D2
:1004600097F830B9404A414944F0010006F062FB78
:10047000FEE73F4804F0F0FF0546C66883684FF486
:10048000887215211B68984718B9336823F4001344
:100490003360AB6828465B6801A9984798B9019B0F
:1004A0009A0210D44FF05023D3F800340BB1DB077D
:1004B00009D5304944F0030006F03CFB02F052FC41
:1004C0002D4802F0A9FF01A800F0D8FD054628B18B
:1004D0002A4944F0010006F02DFBFEE744F0030634
:1004E000039A3046264906F025FB3046254906F09A
:1004F00021FB28464FF4803103F040FF44F0010413
:10050000054620B12046204906F014FBFEE7694667
:100510009DF8080000F048F8009B039E1E44019BD4
:100520001F8906EB07084FF02002EFF3118382F3D7
:100530001188BFF36F8F06F060FC01F06BF801F0DB
:100540004BF8F35983F3088885F31488D8F80430FE
:10055000984720460D4906F0EDFAFEE708960000A0
:1005600010960000349A0000489A00005B9A000040
:10057000759A00007C9A0000589600009B9A000033
:10058000B99A0000E39A0000039B0000319B000031
:1005900010B5044C236813B904F05EFF2060206896
:1005A00010BD00BF48020220024608B568B1084BE2
:1005B00008480949C01AC008800140F00100002322
:1005C00006F0B8FA6FF0150008BD0860FCE700BF40
:1005D00008960000109600004F9B00001FB5074AC8
:1005E00003460C461068194601AA06F011FF18B917
:1005F000019B2360029B636004B010BD480202208F
:100600004FF4C051014804F027BA00BFE62202208F
:100610002DE9F04FF9B038A8DDE9844815461F46AA
:10062000DDF808B2869E08F00BFC002138A804F023
:1006300023FB3CB1B8F1000F04DD4246214638A847
:1006400008F002FC4FF000096B89B5F80880984467
:10065000EB689844C84529D80DA938A808F031FCA2
:1006600026B1202230460DA906F0A6FD00233A4609
:10067000009329464FF6FF7307A805F09EFD044638
:1006800080B9064680464FF0FF35DFF864910DF1E2
:10069000160305AA06A907A805F0DBFD00281FDA46
:1006A0004FF0FF34204679B0BDE8F08F839AA8EB75
:1006B00009039A4228BF1A464946134692463846CD
:1006C0005A4606F092FA04460028EBD152465946A3
:1006D00038A808F0B9FBD144BCE74FF0FF35D6E7A6
:1006E0007AD1BDF81640102C17D1BDF81480B8F19E
:1006F000200FD5D143463846069938AA06F075FA38
:1007000004460028CED1424638A90DA806F044FD83
:100710000028C5D14FF00108B9E7012C36D1BDF84A
:100720001430202BBCD83846069938AA06F05DFA5A
:1007300004460028B6D19DF814B0BBF1200F03D9B0
:100740004FF0FF342546A2E7D9F80030274D039338
:10075000039B9C42F4DA1DA808F072FB00211DA83F
:1007600004F08AFA6B681DA81A6855F8081B08F08F
:100770006BFB15A91DA808F0A4FB5A4638A915A8BB
:1007800006F00AFD0028DDD00134E1E7202C7FF4DB
:100790007EAF002DA1DBD9F80030AB429DDDBDF866
:1007A0001430B3F5807F7FF47BAF3846069938AAC2
:1007B00006F01BFA00287FF473AFEDB200952146D6
:1007C000BDF8143038AA0DA800F014F800284FF036
:1007D000FF3508BF01265AE7B8F1000F3FF460AFBC
:1007E000B6FA86F0400944425CE700BF6496000018
:1007F000609600002DE9F04790460022ADF54A7D55
:100800000746894627A811469DF848531E4608F01A
:10081000D3FA724B8AAA53F8354003EBC5035B68E1
:100820000294196802A80C443023214606F0B5FF53
:1008300010B14FF0FF340DE0029B8A9A13449C42A2
:1008400040F0C880214629AA02A806F0BAFF48B1A4
:100850006FF0020427A808F0BAFA20460DF54A7D89
:10086000BDE8F0870DF1B00A5246214602A806F015
:10087000A8FF05460028EBD129A807F08DFB029BB5
:1008800028909C4240F0A3802B462A46CDE9005A8E
:1008900029A927A808F04CFA002840F0958027A83D
:1008A00004F088F90446002840F08B8029A807F05E
:1008B00073FB86422890CDD1B6F5807FB9D1B9F1CE
:1008C000200FB6D141468AAA27A804F097F904461A
:1008D0000028AED19DF82733BC2BAAD10DF5A47802
:1008E000DF26454603900CA808F0AAFA00210CA8C0
:1008F00004F0C2F920220DF207310CA808F0A4FA86
:10090000042203A90CA808F09FFA04A90CA808F077
:10091000D8FA1F2ED4BFB1464FF020099DF80F30F2
:10092000404601334A4604A9A6EB09068DF80F306C
:1009300006F042FC002EC844D5DCAC462946DF2236
:100940008AAB087813F8016B013A80EA060001F8D7
:10095000010BF6D12B7803F07F032B701CF8016B91
:10096000002E7FF466AF0134BE2CF7D195F8BE306F
:10097000012B7FF45EAF0CA808F062FA31460CA898
:1009800004F07AF9082216490CA808F05DFA202232
:1009900039460CA808F058FA20220DF207210CA8BD
:1009A00008F052FA04A90CA808F08BFA20220DF2E4
:1009B000073104A806F0F0FB041E18BF01246442AE
:1009C00048E76FF0050445E76FF0040442E76FF075
:1009D00003043FE76FF001043CE700BF64960000AA
:1009E000709B000030B50C46816887B0102302AAC6
:1009F0001039054605F0CDFB002802DA012007B0CA
:100A000030BD012837D103232370A968012328466C
:100A10000DF10702283905F0BCFB0028EEDB9DF83C
:100A20000730012803F00F024FEA1313627023719D
:100A300001D0042A03D90123637000232371A9681C
:100A400001232846A21C203905F0A3FB0028D5DB92
:100A500001281AD10323A370A96801232846E21CA8
:100A6000183905F096FB0028C8DB012813D10323B1
:100A70000020E370C3E710220A4902A806F08CFBAD
:100A8000002814BF02230123BEE7A378012B0CBF6B
:100A900001230223DFE7E378012B0CBF01230223AC
:100AA000E6E700BF6C9600002DE9F041032386B015
:100AB0000D466F460026DFF86880ADF8003017F865
:100AC000010B01A901F052FC0446D8B9019810238A
:100AD000816802AA103906F088F8044628B1019806
:100AE00006F082F80EE00126E9E71022414602A84E
:100AF00006F052FB50B1019806F076F8002EF2D0C5
:100B00004FF0FF34204606B0BDE8F0810198042381
:100B100081682A46303906F068F80446DFE700BFEE
:100B20006C960000816808B5044A1023103906F05D
:100B300079F8003818BF012008BD00BF6C9600008E
:100B40002DE9F04385B06946032005F025FC18B176
:100B5000FF2005B0BDE8F083072002A905F01CFCCA
:100B600002460028F4D19DF800509DF808609DF8D9
:100B700003709DF80B809DF80290244C2946207844
:100B800005F0DFFB30B33146607805F0DAFB08B3DF
:100B9000A378042B01D0BB421CD1E378042B01D0F5
:100BA000434517D12379042B12D1194B1948C01A88
:100BB0006379C0088001022B40F003001BD1164A64
:100BC000164905F0B7FF6079831E022BC1D9BFE734
:100BD0004B45EAD00132032A04F10604CED10C4B76
:100BE0000C480F49C01AC008800140F0030005F00E
:100BF000A1FF0120ADE7032B05D00A4A0A49042BC7
:100C000018BF0A46DCE7094ADAE700BFB99B0000D3
:100C100008960000109600007F9B00009B9B000040
:100C2000A99B0000789B0000899B0000849B00002A
:100C3000F0B5054689B000200C4605F09FFA06A9DC
:100C4000C0B201F093FB002863D1214605F096FA6B
:100C50002C2607A9C0B206FB045601F087FB98B109
:100C60002C236343E818016911F010011CD0002CFB
:100C700033D02846069905F0A0FC2546069805F0D5
:100C8000B3FF284609B0F0BD079805F080FA074683
:100C9000079805F0A9FF731EF21C9342E7D013F8E2
:100CA000011FB942F9D0DBE7EA581B4B9A4216D034
:100CB00024B106980021826805F0DDFF174B184823
:100CC000184AC01AC008184B8001002C18BF1A46D9
:100CD000164940F0010005F02DFF0125CEE7C2685E
:100CE0000089C3439A42E3D8069B02449868824233
:100CF000DED24FF4807201920D4A08460092CDE98F
:100D0000031132460291FFF783FC05460028B5D057
:100D1000CEE74FF0FF35B4E73DB8F39608960000F4
:100D200010960000CB9B0000D39B0000DD9B0000D1
:100D3000AC16022073B50D46002104462846CDE9C5
:100D4000001105F0F9FB60B3194E2268B24203D1DD
:100D5000204601AA05F067FBE36AB34204D16A4664
:100D60000121204605F05FFBDDE90032934288BF98
:100D70000193019BAB60019A2946204600F02AFBB3
:100D80000C4B1A68002A09DD0B480C4B0C49C01AA1
:100D9000C008800140F0020005F0CCFE002002B047
:100DA00070BD05F10801FFF77FFEAB680193E2E734
:100DB0003DB8F396AC17022010960000089600008C
:100DC000009C00002DE9F04B0E4690469946002409
:100DD000099FDFF844B0BC4201D300200EE03D1B68
:100DE000B5F5806F28BF4FF4806530462B460A4A20
:100DF00004EB090105F0F9FE10B10120BDE8F08B0C
:100E000008992B465A464046611805F00BFF00280A
:100E1000F3D12C44DFE700BFAC020220F0B504465A
:100E2000602285B00E46002106F0F1F900218B4BBF
:100E3000084663628A4B236505F0A0F904F120019E
:100E4000C0B201F093FA0121002005F097F904F1F6
:100E50004C01C0B201F08AFA204605F044FB054679
:100E600068B14FF480727F487F4B8049C01AC00838
:100E7000800140F0020005F05DFE012396E002468D
:100E80000146204605F017FB074648B12A46754B38
:100E9000754877491B1ADB089B0143F00200EAE71B
:100EA000204600F0A9F90028E7D0684605F03BFB92
:100EB0006946204605F0D5FB054638B1694B6A48BE
:100EC0003A461B1ADB086B499B01E6E7684605F0CA
:100ED00033FB80F001016A462046C9B205F0EBFA07
:100EE00002460028D2D1684605F026FB054690BB95
:100EF00069462046FFF71EFF9DF8073084F85830FA
:100F0000033B012B06D8284605F0F2FB10B1FF2366
:100F100084F858309DF80730023B022B11D800208E
:100F200005F0D4FB68B1FF2384F858304D484E4B90
:100F30005149C01AC008800140F0010005F0FAFDD7
:100F4000FEE794F85830FF2BF0D06A460021204687
:100F500005F0B1FA91E79DF80770012F20D11046F6
:100F6000FFF7EEFD831E022B054608D839462046C2
:100F7000FFF75EFE012811D0002818BF052584F870
:100F8000585094F85830042B8DF8073014D8012BA2
:100F900018D82AD0FF2384F8583026E00546EEE71B
:100FA00001212046FFF744FE18B1052384F858308C
:100FB000E7E79DF80730F9E7052BEBD1002005F0B6
:100FC00097FB10E069462046FFF7B4FE94F85830CE
:100FD000DA1E012A18D8002005F08AFB0028D9D192
:100FE000002005F073FB0028D4D194F85830FF2B73
:100FF0000DD11C481C4B2049C01AC008800140F08C
:10100000010005F097FDFEE7022BEED1E8E7012B8A
:1010100007D100212046FFF70BFE054690B10325BE
:1010200007E06A460021204605F045FA05460028FB
:10103000EFD0E06C05F0D8FD206A05F0D5FD28461C
:1010400005B0F0BD10220146684606F0E0F8236ABC
:101050005A7832715B683460B360EAE7AC0602200C
:10106000AC0E022010960000089600002A9C00009A
:10107000679C00008E9C0000B39C00000146014864
:10108000FFF7CCBE4C02022073B516461C4633B3A4
:10109000436A5D686379012B15D101BB1F4B226840
:1010A0001B689A4298BF0025002005F067F801A947
:1010B000C0B201F05BF9F0B10125019805F094FD93
:1010C000284602B070BD022B09D12368012B08D934
:1010D000124A1268934202D8B1FA81F149090025F7
:1010E000E2E7FCD10029DFD00129F8D121790239CA
:1010F00018BF0121F3E7294620233246019805F065
:1011000074FD05460028D7D1002CD6D03568044898
:101110002D1A18BF4FF0FF35CFE700BF00000220A7
:101120003DB8F3962DE9F04F07460C4685B00146D1
:101130000020164605F018F9051E52DB3846E46D0E
:1011400005F01CF95FFA84F84FF000094FF0010A2E
:101150004FF0FF34691E08FB0101CDB9B9F1010F51
:1011600009DD2248224B2349C01AC008800140F003
:10117000010005F0DFFC631C06D0FF2C25DC40F2EB
:10118000011301343460B380284605B0BDE8F08F08
:10119000012338460DF10F02019104F0FAFF0028F7
:1011A00005F1FF3B1FDB0128019909D1BAF1010FBD
:1011B00001D009F101095D468246A1EB0801CCE7A7
:1011C000B4F1FF3F08BF2C46F5E70223A4F5807475
:1011D0007371631004F0010401330134336034711E
:1011E000D2E70725D0E70125CEE700BF1096000023
:1011F00008960000BA9C000038B5826A446DA2428D
:101200000ED0631C93420BD01B481C4B1C49C01AC8
:10121000C008800140F0020005F08CFC002038BDC1
:10122000B2F5807F24D91448144B1649C01AC0085F
:101230008001EFE7416A056D01EBC30105EBC305D2
:1012400049686D688D4206D00B480C4B0E49C01A98
:10125000C0088001DEE70133A342EBD19A4205D9F1
:10126000426A02EBC3035B689942EDD10120D6E7E5
:1012700000231946F0E700BF109600000896000012
:10128000D89C00000B9D0000359D000010B586B075
:10129000032004A905F080F81A4C1B4B9DF8102080
:1012A000E41AE408A401012A44F0030021D0174BFA
:1012B0001749032A18BF0B469DF8132015490292BF
:1012C0009DF8122001929DF811200092124A05F01B
:1012D00031FC9DF81030012B0DD19DF81230032BFD
:1012E00009D144F003000D4905F024FC022006B0AA
:1012F00010BD0B4BE0E744F003000A4905F01AFC6F
:101300000020F4E71096000008960000619D0000A0
:10131000679D0000799D00006B9D0000B59D000059
:101320005C9D0000CF9D000070B5064618464B68D6
:101330001446204A03F0FF2393420D4686B034D171
:101340000B68012B31D104A905F026F81A481B4B74
:101350009DF810201B1ADB089B01012A43F00300B3
:1013600025D0174B1749032A18BF0B469DF81320A9
:10137000154902929DF8122001929DF811200092C9
:10138000124A05F0D7FB9DF81030032B0DD12146F2
:10139000304605F012F9204605F01EF82046A968EF
:1013A00005F035F82046FFF7BDFB06B070BD084BD1
:1013B000DCE700BF00010004089600001096000062
:1013C000619D0000679D0000799D0000E19D000087
:1013D0005C9D0000436A2DE9F04F0C465E680546AF
:1013E000012100238BB033449342084601F10101EF
:1013F000F9D3744F3860204605F09EF80397E8B1A2
:10140000E86D04F0ACFF0022AB6A013B324490422D
:1014100001D9013BFAE7039A12689A420ED36A4B4C
:101420006A486B49C01AC008800140F0020005F00C
:1014300081FB0123E3710BB0BDE8F08F08A9032005
:1014400000F094FF09A9072000F090FF0723214630
:101450002846099AFFF768FF6379012B08D1039B9F
:10146000DFF870B11F68039B1B68A7B901232360D5
:1014700002230127DFF85C8163710693039BDDF88B
:1014800020901B68BB4247D2484605F0ADFB099847
:1014900005F0AAFBCFE7226801339B1A9F4239D897
:1014A0006B6A012A196853F8370003EBC70353F836
:1014B000083CDDF82080A0EB0109A3EB010A0FD165
:1014C000099B41462846049305F077F84146224699
:1014D000284605F0A7F8049B2846194605F06DF844
:1014E00032464946404605F066F853464246414674
:1014F0002846CDE90096FFF765FC2146284605F011
:1015000028F823680133236020B1DBF80030013371
:10151000CBF80030013FA6E72368BB4250D86A6A87
:10152000FB0052F83710083B05911168DDF824A044
:101530000491296DC8580968A0EB010B2179012994
:101540003CD1D158049B3246C91A4846079105F050
:1015500032F807995B464A46009128465146019663
:10156000FFF730FC2146284604F0F3FF069B237169
:1015700020B1D8F800300133C8F80030324659465F
:10158000504605F018F8DDE9042349469B1A284621
:101590005246CDE900B6FFF715FC2146284604F077
:1015A000D8FF2368013323604FF00103237138B162
:1015B000D8F800300133C8F8003001E00229DDD04E
:1015C00001375BE70000022008960000109600003B
:1015D000F19D0000AC17022010B5BFF36F8F72B6FB
:1015E0000B4A00234FF0FF34114603F12000013372
:1015F000102B42F82040F8D100234FF0FF3003F1C8
:1016000060020133102B41F82200F8D110BD00BF59
:1016100000E100E00122124B12491A604FF0FF3343
:10162000C1F84833C1F8083301F580514A600431EC
:1016300000210D4AC2F84833C2F80833A2F55042DF
:10164000C2F80015C2F8083302F58052C2F800153E
:10165000C2F808334FF05022C2F80833704700BF79
:101660000440015000400150005001502DE9F0436A
:101670000546079810B91060BDE8F0830324B0FB5D
:10168000F4F404EB4407B84218BF0134B4F1804FBE
:1016900005D34FF0FF3313606FF00B00ECE7A400AD
:1016A00001348C4200D80DB91460F5E72E460024B1
:1016B000DFF8B4E0BC4231469C4606F1040603F173
:1016C000030329D3844222D20134844228BF002359
:1016D0009CF80060244F38BF9CF801304FEAA60CFC
:1016E00017F80CC0844281F800C007EB131C2FBF11
:1016F0003D239B0003F03C03FB5C36018B703D23D4
:1017000006F030061CF80660CB704E7004310020E5
:101710004D1B15600870AFE713F803CC13F8021CDB
:101720004FEAAC091EF809904FEA0C1C13F8018C23
:101730000CF0300C06F8049C0EEB111919F80CC0D3
:10174000890006F803CC01F03C010EEB981C1CF854
:10175000011008F03F0806F8021C1EF808100334B8
:1017600006F8011CA6E700BFA99F00004FF0000C7F
:101770002DE9F043074665466046079EDFF8208165
:10178000B5420AD32E4604E00135AE420EF1010EF9
:1017900005D1A8BB1060BDE8F0834FF0000E5C5D82
:1017A000202CF1D0AE42F4D0A6EB0509B9F1010F1F
:1017B00015D90D2C13D103EB050999F80190B9F156
:1017C0000A0F1BD0BEF1000F06D13D2C09D10CF140
:1017D000010CBCF1020F07D96FF01500DBE70A2CF2
:1017E000EFE714F0800FF7D118F804407F2CF3D006
:1017F0003F2C02D8BCF1000FEED101300135BFE71C
:10180000062500F007046C4304F1070EC4086C437E
:10181000A4EB0C0404EBDE0487B18C420ED8002547
:10182000394603242846DFF878E0DFF878801E4444
:101830009E4207D1C91B00201160ACE76FF00B007E
:101840001460A8E713F8019BA9F10A0C5FFA8CFC5D
:10185000BCF1160F04D828FA0CFC1CF0010FE7D1DC
:101860001EF809C00130BCF1400F08BF013C0CF06C
:101870003F0C04284CEA8515DAD17CB1280C012CE8
:10188000087002D101310020D2E7022C4FEA152066
:10189000487016BF8D7002310331F4E72046C7E768
:1018A000299F0000090040002DE9F04F87B00F4646
:1018B0001946109B06461425104698469DF844B0DC
:1018C0009DF848A01E4C4FEAE37950EA01031AD173
:1018D000142D08BF3023139C18BF01352C4408BFBA
:1018E0008DF81430152C1BD0153C002C1ADC1DF87B
:1018F000050039460135B047152DF8D1002C19DC0B
:1019000007B0BDE8F08F42464B46FEF71BFC84460D
:101910000B46A25C60460DF805201946013DD4E750
:101920000024E4E7BBF1000FE1D039465046B04750
:10193000013CDAE739465046B047013CDEE700BFDC
:10194000E99F0000014B1860704700BF04000220AF
:101950002DE9F04F002605468B461C464FF0FF3818
:10196000374687B002F1FF3A4FF0000907E0B9F1BE
:10197000000F0BD1252800F00A815946A8471AF814
:10198000010F0028F3D107B0BDE8F08F7A280AD8FC
:10199000622810D8302851D044D8252800F0F5808E
:1019A0002D2800F0FB8059462520A84759469AF873
:1019B0000000A847D8E7A0F16303172BF3D801A2D2
:1019C00052F823F0831B0000851A0000A7190000BD
:1019D000A7190000A7190000671A0000851A000067
:1019E000A7190000A7190000671A0000A719000036
:1019F000A7190000A7190000FF1A0000A71900008E
:101A0000A71900004B1B0000A7190000851A000051
:101A1000A7190000A71900002D1A0000A71900003F
:101A2000671A0000392815D95828BCD19AF8003017
:101A3000702B6ED1002354F8042B75E0B8F1000F21
:101A40000BDA002F00F0AC80A0F13008002F08BFA7
:101A5000022794E7B8F1000FF6DB0A2303FB08081E
:101A6000A8F13008F2E7682803D1682E06D148268D
:101A700085E76C2802D16C2E00F09480002E92D164
:101A800006467CE77A2E06D1A14659F8042BD317D7
:101A9000752823D10FE06C2EF6D04C2E05D10734DB
:101AA00024F00709F9E80223F2E77528226804F117
:101AB000040912D10023F81E18BF0120012F0CBF0A
:101AC0003024202401900A20CDE902480090594694
:101AD0002846FFF7E9FE4C4646E7D317002A73F184
:101AE0000001E8DA59462D20CDE90423A847DDE9B5
:101AF0000423524263EB430308F1FF38DBE7594606
:101B00003020A84759467820A8474FF008080127F9
:101B10008CE76C2E8ED04C2E8CD1E31D23F0070366
:101B20001C465B6854F8082BF81E18BF0120012FD3
:101B30000CBF30212021CDE9021810210190009125
:101B400028465946FFF7B0FE0EE754F8043B994685
:101B50004A4619F8010B78B9032F25D1A2EB0309E6
:101B6000A8EB0909B9F1000F7FF7FEAE5946202016
:101B7000A84709F1FF39F5E759460493A847049BA4
:101B8000E6E7594654F8040B13E7594611E74E4669
:101B90004F464FF0FF384FF00109F0E60327EEE61D
:101BA0000127ECE64C26EAE68146E8E62DE9F84F07
:101BB000B0F81890044619F0080893460DD0012992
:101BC0000CBF49F0100949F02009A0F818908BF3D8
:101BD0001188BFF36F8FBDE8F88F09F0070902295C
:101BE00007D1204604F012FE0028F0D00128238BF4
:101BF00050D16769218B002F15DA256821F0070184
:101C0000C4E9008841F0010121830026218B01F005
:101C1000070ACA4502D0A368002B5CD10DB9002E7B
:101C200074D0002358E001F007035A1F012A20D87E
:101C300021F00701062B256889B2C4E900880CD180
:101C4000002D2B4638BF00232BB1628B1B6801325D
:101C50006283002BF8D141F002012046218304F079
:101C6000D5FD06460028D1D0238B43F020032383E3
:101C7000CBE7042B0CD121F0070189B22046218348
:101C800004F0C4FD05460028BFD041F020012183A7
:101C90000025BAE7032809D1226923F00703166853
:101CA00043F00603002523832F46AFE7042806D11F
:101CB000226923F00703566843F00403F2E705287E
:101CC00006D1226923F00703966843F00503E9E78C
:101CD00000252E46E8E7012341F0080121838BF31C
:101CE0001188BFF36F8F03BB002D33D116B120468F
:101CF0002049B0474FF02003EFF3118B83F3118895
:101D0000BFF36F8F238B23F008032383238BDA0623
:101D100028D5012123F010032383B4F8189009F08B
:101D2000070900297FF45BAF51E7A1680029DBD0E8
:101D30000B68002B38BF0023994652463B4620468D
:101D4000D1F804B0D847B9F1000FCDD04946D9F841
:101D50000030EEE729463B46524620462D6804F007
:101D600071FDC1E713F020011EBF23F02003022103
:101D70002383D2E7716800004FF02002EFF3118354
:101D800082F31188BFF36F8F0121044AC2F8401516
:101D900083F31188BFF36F8F0020704700900350CA
:101DA00020B1034B800143F001031847704700BF87
:101DB000509600002DE9F04F124B85B01B68074686
:101DC0008846164698474FF0000B81460E4C0F4B45
:101DD0001B1B4FEA231ADA4502DC05B0BDE8F08F81
:101DE00063685B794BB1236803965D682DB1434608
:101DF0004A46394620460096A8470BF1010B10349D
:101E0000E9E700BF0800022040960000509600005D
:101E1000034B044A4FF400401A6000F011BA00BFAF
:101E200008000220216B0000044A054B9B1AB1EB0D
:101E3000D30F34BF52F831000020704708960000DD
:101E400040960000094B4268C31A1B11013310B5BC
:101E5000137101224368064C5A712278196012B935
:101E6000044803F085FE0123237010BD4096000056
:101E7000E63A0220AC01022070B50F4BD3E8EF5FC9
:101E80006A1CC3E8E12F0029F8D12DB90B4C0C4E88
:101E9000361B3611B54200DB70BD237B43B123688E
:101EA0005B6903B19847042200212046FFF7CAFF6F
:101EB00001351034EEE700BFB01702204096000055
:101EC00050960000F8B50C4F3D784DB9FFF7D4FFA0
:101ED0000A4C0B4E361B3611B54202DB01233B7018
:101EE000F8BD63685B791BB1236820461B6998477E
:101EF00001351034F0E700BFE73A022040960000B9
:101F0000509600000EB403B503AB53F8042B014602
:101F100004480193FFF71CFD002002B05DF804EBBC
:101F200003B070475B6B00002DE9F04F11F0020425
:101F300085B0904606461A469DF8387001F00109B2
:101F400001F0080507D011F0440F37D13249FFF7EF
:101F5000D9FF01460C46B9F1000F0AD02F4B30468D
:101F600053F827202E4B2F49002A08BF1A46FFF7A7
:101F7000C9FF3DB12C4B304653F827202B49FFF7C2
:101F8000C1FF0546B8F1000F43D0012303FA07F75C
:101F9000274B17F0100F274F18BF1F46BDF84010F2
:101FA0009DF83C00FFF740FF394602463046FFF7F8
:101FB000A9FF2844204405B0BDE8F08F1E4B1968E6
:101FC0000029C7D01D4B4FF4616E1B684FF47A7C1B
:101FD000B2FBF3F3B3FBF1F4B4FBFEF20EFB124ED3
:101FE00001FB14340CFB04F4B4FBF1FB4FF03C0A8E
:101FF00001FB1B440CFB04F4BEFBFAF3B4FBF1F150
:10200000CDE901B10AFB13E100910D49FFF77AFF19
:102010009FE7084FC2E700BF0CA0000080960000B9
:10202000FE9F0000A69B00009496000031A00000D7
:1020300008A0000003A00000B4170220B817022077
:1020400015A0000038B50C46E107054603D5084A3F
:102050000849FFF757FFE20608D4A3062846BDE863
:1020600038404CBF04490549FFF74CBF38BD00BF9D
:10207000FE9F0000A69B000038A0000037A00000D3
:102080002DE9F0471D46089B1746DA0604460E4622
:1020900005D499064CBF2A492A49FFF733FF4FF070
:1020A0000008DFF8A890A8452ADB0025DFF8A0800B
:1020B000DFF8A090DFF894A0BD422FD24946204619
:1020C000725DFFF71FFF0135102D20D120461E49FC
:1020D000FFF718FF0025DFF87480DFF87C90AF422F
:1020E00028D9725D4946A2F120035F2B28BF2E221A
:1020F0002046FFF707FF0135102D14D1BDE8F0870A
:1021000049462046FFF7FEFE08F10108CBE76A07C3
:10211000D2D151462046FFF7F5FECDE74146204695
:10212000FFF7F0FECFE76B07D9D141462046FFF716
:10213000E9FED4E741462046FFF7E4FEDBE700BFB7
:1021400038A0000037A0000044A0000042A000001A
:1021500040A000003AA0000046A000002DE9FF4189
:1021600011F007060546DDE90A871C460BD0C1F3CE
:102170008913C1F3C201CDE90061029339461346C8
:102180000122FFF7D1FE4346224629460D48FFF7BC
:10219000DFFB8EB9013C334614F8016F002EFAD1F3
:1021A0000A2B03D128460849FFF7ACFE284604B0A5
:1021B000BDE8F04104F0EABC324639462846FFF754
:1021C00041FFF3E75B6B000074A100002DE9FF47BE
:1021D0000E9E9846DDE90C75C1F3891301F00709DD
:1021E000C1F3C201CDE900910293314613460122A9
:1021F0000446FFF799FE4246824610492046FFF703
:1022000081FE55B920464A463146FFF71BFF20465E
:1022100004B0BDE8F04704F0B9BC102DA84628BFB3
:102220004FF0100839465346424620460096FFF7C5
:1022300027FF4744A5EB0805E3E700BFA69B000086
:1022400001230021074A10B5074C1360A04204D8AF
:1022500001B11360054B186010BD012140085B00FF
:10226000F4E700BFB817022040420F00B417022065
:102270000122014B1A707047E93A02200122024BF9
:1022800002481A7004F082BCEA3A0220C0960000AC
:102290001FB50F2002900798019006980090034800
:1022A000FFF794FF05B05DF804FB00BFC096000087
:1022B00007B50F200190049800900348FFF74EFFE8
:1022C00003B05DF804FB00BFC0960000F8B50746F8
:1022D0000E460424174D32463946002000F004FC17
:1022E000C8B101232B70144B1B782BB93046F8BDB5
:1022F0005CB92C704FF0FF34002000F075FC002812
:10230000F4D02B78002BF3D1F0E7013C41F2883078
:1023100007F018F8F0E72B7813B1013C04D12C70CA
:102320002B78002BD7D1E1E741F2883007F00AF88B
:10233000F6E700BFE93A0220EA3A0220094B30B53D
:102340001D68094B02461C6800239D4201DC0020E9
:1023500030BD1901615C04EB03109142F8D00133E8
:10236000F3E700BF609700000C000220084B10B597
:102370001B680C462BB1FFF7E1FF28B1206000205D
:1023800010BD6FF00C00FBE76FF00100F8E700BF35
:102390000C00022030B589B00C4615460190FFF7BD
:1023A000CDFFB8B14368226802938368C068CDE965
:1023B00003350023CDE90623059303F04DF860B102
:1023C000074901AA05F028F8079808B9059B23607A
:1023D00009B030BD6FF01500FAE76FF01200F7E7B3
:1023E000AD6B0000044608B54FF02002EFF31183F7
:1023F00082F31188BFF36F8F04F0FFFC204601F0D9
:10240000E5FA034804F0F5F901F0A2F9FCE700BF92
:1024100079A0000010B5044C2046FFF793FA20463F
:1024200001F062FC002010BD2D2400002DE9F341D5
:1024300004460325DFF85C80154E8DF807004FF049
:10244000FF334FF0FF32404603F020F901220DF137
:102450000701002000F094FB0746404603F08EF988
:102460002FB101233370204602B0BDE8F0813378EC
:10247000002BF8D0013D08D006F05EFF0028DED129
:102480000021422003F05CFBD9E73570EBE700BF89
:10249000EB3A02208401022070B504460C250D4859
:1024A0000E46231A9A100C4B40215343DBB25D4376
:1024B00005F14003184404F016FC011E04DB074B31
:1024C0002B445B689847002120463346BDE87040A6
:1024D000184700BFE0170220B76DDBB67897000001
:1024E0002DE9F0410F4C104D031B9B105D43EBB2E7
:1024F0000C255D43074605F140000E46204440216F
:1025000004F00AFC011E08DB084B2C44C4E90E361B
:10251000074B5B59BDE8F041184738463346BDE8E4
:10252000F0411847E0170220B76DDBB6816D00005F
:102530007897000070B5002201210446052001F0C3
:10254000D5F8052001F0B4F80F4801F0EBFF0F4B70
:10255000984215D105F0B0F8E6680D49304604F010
:10256000A4F900280BDB01253564E468084904F16F
:102570001C0004F09AF9002801DB0020E56470BD1E
:102580006FF00400FBE700BFC92500000000AD0BA1
:102590009097000001460C2300224B43084870B579
:1025A000C4184033D4E90E561844A26304F0D2FB99
:1025B0002DB132462B46BDE870400248184770BD29
:1025C000E0170220E400022010B1012804D0704777
:1025D000034B1B6C5B0701D1FFF7DCBF704700BFEB
:1025E000E017022008B54FF02003EFF3118183F3C9
:1025F0001188BFF36F8F124A136843F0020013F083
:10260000010310600CD04FF05022D2F80C34D2F8F5
:102610000C2413F0010303D00A4804F09BFB0123B0
:1026200081F31188BFF36F8F23B1BDE8084000200C
:10263000FFF7B0BF0120BDE8084001F083BF00BF35
:102640003018022020180220074BD3E8EF2F22F089
:102650000201C3E8E01F0028F7D1D30702D401200C
:1026600001F0A2BF704700BF301802202DE9F843E7
:10267000012206463949D1E8EF3FC1E8E02F0028A2
:10268000F9D133B9364937484B60CB608A6004F0E2
:102690001FF9731E012B32D8012E07D14FF05023A2
:1026A000D3F81C3403F00303022B28D006F044FEB9
:1026B000044618B92C4B1B78002B47D14FF0200350
:1026C000EFF3118583F31188BFF36F8F0124274F38
:1026D000DFF89C80DFF89C904FF05022D2F818343D
:1026E000D2F81824D2030CD503F00303022B01D037
:1026F000012E06D124B385F31188BFF36F8FBDE897
:10270000F883C4B1284601F031F84FF05022D2F8D6
:102710001835DBB2012BDFD139680029DCD000216C
:10272000396039680221C2F818152022C8F88021C2
:10273000C9F80030D0E70021212003F001FAE4E7D6
:102740004FF050230222C3F80423D8E74FF0502360
:1027500002220546C3F80823B9E700BF3418022057
:10276000D0170220FC170220A04302200451005081
:1027700000E100E008500050821C084B22F07F422C
:10278000C3F84025D3F80425904200D17047D3F810
:102790000405821C22F07F42F2E700BF0050015086
:1027A0000022074B1A601B68064A074BD3F8400506
:1027B0001368C01A20F07F400344136003F0C4BACA
:1027C00040510150381802200050015038B5002403
:1027D0004FF400120E4D0F4BC5F808451C601B68E6
:1027E0000D4B0121C3F880214FF480332246C5F8F8
:1027F0000433152000F07AFF152000F059FF012363
:10280000064A022013602B60FFF730FF204638BDD8
:10281000005001504051015000E100E008500150CB
:10282000F8B52D4B2D4CD3F804252D4BB0F1FF3FBF
:1028300008BF20461968521A22F07F43120238D48A
:10284000013820EAE070A042A8BF204601331844B6
:10285000A04294BF0C180C194FF4803000261E4A79
:10286000204DC2F80803D2F80415D2F840352E6086
:102870005B1A23F07F432F68012B21F07F47C2F8BA
:102880004075C2F8440304D10F2006F05BFD2E60B2
:102890002B684FF40012144BC3F880210E4BD3F871
:1028A0000405221A22F07F42012A04D1FFF764FFB7
:1028B0000BE00020CAE724F07F42C3F84025D3F89C
:1028C0000405241A023C2302F0D44FF48032024B58
:1028D000C3F80423F8BD00BF00500150FFFF7F0084
:1028E000381802204051015000E100E04FF0200272
:1028F000EFF3118382F31188BFF36F8F064AD2F88A
:102900000405064A1268801A20F07F4083F311887C
:10291000BFF36F8F704700BF00500150381802207E
:102920004FF02003EFF3118283F31188BFF36F8F11
:102930000649074B0868D3F8043582F31188BFF3C2
:102940006F8F1B1A23F07F431844704738180220FA
:1029500000500150014803F0A3BA00BF9C9700004B
:1029600008B530B143683BB1006802F007FF0020B2
:1029700008BD6FF4E040FBE70048F9E7EA8FFFFF8E
:1029800010B5044618B90B4B0B485B689847616853
:1029900059B111F00201206808D00146074802F041
:1029A0004BFE002323600023636010BD142204F05B
:1029B0002EFCF8E784000220CCA000003C18022086
:1029C00010B5044618B9144B14485B6898476368FF
:1029D000CBB92368BBB94FF0FF324FF0FF3321462C
:1029E0000F4802F0F7FD08B923681BB90A4B0D48E0
:1029F0005B68984714220021206804F008FC636893
:102A000043F002036360206806F0E2FB636843F072
:102A10000103636010BD00BF84000220CCA0000051
:102A20003C180220F2A0000008B568B1436873B1F9
:102A300000684FF0FF334FF0FF3202F027FE054BE6
:102A4000002818BF184608BD6FF4E040FBE70248B5
:102A5000F9E700BFE98FFFFFEA8FFFFF08B50649DE
:102A600040231422054806F098FBBDE808400449BD
:102A7000044803F067BA00BF581802203C1802202F
:102A8000B4970000A4970000032310B5104C114A1E
:102A9000C4E90433104BA261E3614FF48063226602
:102AA0000E4A23626266002310220D49E01DA362D4
:102AB0006362E3622367E3666367A26604F04FFB29
:102AC0002046084904F04BFB2023A37110BD00BF32
:102AD000581D02201FA10000FC3A0220EC3A0220FF
:102AE00028A100002CA100002DE9F84F4FF0180B91
:102AF000224F14460BFB0072936A556A0646AB429E
:102B0000884634D8D2F820A0AAEB050909F1FF3293
:102B1000944211D84FF0180906FB09933B445868BA
:102B200022464146284404F047FB09FB06762C4424
:102B300001207462BDE8F88F13449C421BD800FB4F
:102B40000BBBBB44DBF804004A4628442C4404F089
:102B500033FBB4EB0A0406D02246DBF8040008EB92
:102B6000090104F029FB182000FB0676E0E7013B91
:102B70005B1BA342CED20020DCE700BF581D022021
:102B8000F8B51823174C00FB033503FB0040254420
:102B9000C46A0F46012C16460FD0022C1AD0F4B985
:102BA000284604F02EF9864205D832463946284692
:102BB00004F035F934462046F8BD284604F021F9E2
:102BC0008642344628BF044639462246284604F049
:102BD00026F9F0E72846BDE8F84004F03CB90024A7
:102BE000E9E700BF581D02201822034B02FB003307
:102BF0009A6A586A801A7047581D0220F7B5284D06
:102C0000286883685B6C03B19847286883685B6BAE
:102C1000DBB19847C8B1234C234E286883689B6971
:102C20009BB101220DF10701984701280DD12368BE
:102C3000A3B933685BB91D481D4B1E49C01AC008B3
:102C4000800140F0010003F075FF03B0F0BD716832
:102C50001A688B42326000D17260236016499DF879
:102C600007700A880846B2F5007F06D2236802F191
:102C7000010C1344A1F800C01F720A2FCDD12368A4
:102C800002880E495A6000221A604E6826B9C1E9CE
:102C9000003302802260BFE733604B60F9E700BF7A
:102CA00028220220081E0220001E02202896000072
:102CB0000896000033A10000E42202202022022016
:102CC000044B10B5044618688368E1B25B68984706
:102CD000204610BD28220220F8B506460B461546B0
:102CE0004FF02002EFF3118C82F31188BFF36F8F46
:102CF000194C216849B1194A5068884205D0002012
:102D00000860506898B9C2E90011154A116829B1E4
:102D100057680868B942106008BF50608CF311888A
:102D2000BFF36F8F216029B900202860F8BD0160D2
:102D30005160EAE748680831F6D05C1E8442A8BFBB
:102D400004463046224604F037FA00233355012367
:102D50002B60E018EAE700BF0C1E0220001E0220D4
:102D60002022022037B500251D4B1E4AC3E900551D
:102D70001D4B03F502711360C3F8085219605160CE
:102D80001A4802F069FB1A4C206028B3836823B10B
:102D90009B6C13B12A4617499847206883685B6B80
:102DA00053B1984740B1206883689B6923B10122E1
:102DB0000DF107019847F5E700230F4A20681380BB
:102DC00082681C46926A02B1904784F31188BFF36F
:102DD0006F8F002003B030BD4FF0FF30FAE700BF27
:102DE00020220220001E0220101E02205DA10000F1
:102DF00028220220FD2B0000E422022038B543687F
:102E0000044698188028154608D80648184404F047
:102E1000D3F9002062682A44626038BD4FF0004058
:102E2000FBE700BFFC3E022040F606132DE9F0410F
:102E3000DFF82881D2B0D8F80000ADF80C30404B54
:102E400081885C680378C4F3072201330370002390
:102E500042EA042242800A0242EA1122437082803E
:102E60000821009341F2210203F076FC0122354F44
:102E700003462146ADF810000092384641F2210287
:102E800003F06AFC0225304E40BA3368ADF81000FA
:102E9000022103A85B68984704F10A035BBA0DF1AD
:102EA0001201022206A8ADF8123004F085F9D8F814
:102EB000001008220DF11A00ADF8125004F07CF950
:102EC000BDF8120006AB083080B222463946ADF894
:102ED0001200184404F070F9BDF8120006AB20444B
:102EE00080B22A46ADF8120004A9184404F064F92F
:102EF000BDF8123005AA2B449BB2ADF812300093F6
:102F0000AD2106AB26A8FEF7B1FB05993368ADF8F5
:102F1000121026A85B6889B29847336829465B6817
:102F20000A4898470A4B0B480B49C01AC008800151
:102F300040F0030003F0FEFD52B0BDE8F08100BF99
:102F400030000220FC3E02202C22022073A100004F
:102F5000089600001096000076A1000030220220A2
:102F600038B50C4C0C4D4FF0FF322146284606F088
:102F7000C5F80A49204603F0CEFF00230022204670
:102F800006F09AF82146284606F0C7F8BDE8384012
:102F9000FFF74ABF442202203422022079A1000018
:102FA0002DE9FF410C681B4F02380D46C4F5007136
:102FB0000090194B381903AA0131FEF7D7FB0446DC
:102FC00028BB2B68039A1344022B2B601BD939882A
:102FD000023B0E0246EA1126B6B29E4213D14FF0D2
:102FE0000108034641F221023146CDF80080B81CA9
:102FF00003F0B2FB38B9022E05D92B68023B1F44FF
:103000002B60BC704446204604B0BDE8F0814FF010
:10301000FF34F8E77C3F02207F4102202DE9F04F8A
:1030200007290446B3B060D9027812F0FD055CD1DF
:103030004288A1F10806130243EA12239BB2B3426D
:1030400053D38288AC4BAD491860130243EA122374
:1030500083802A46AA484D6006F021F8A388012BF8
:1030600040F0BB81E3792BB1012B00F09D80FFF78D
:1030700077FF3AE04FF0FF32A249A14806F03EF850
:10308000A149A04803F047FF4FF0FF329D4808A92F
:1030900006F031F8002600279C4DDFF89482DFF817
:1030A00094923146002003F069F807A9C0B2FFF7F7
:1030B0005DF9044658B92023014610AA079803F089
:1030C00094FD109BAB4216D0079803F08DFD002FA6
:1030D00008BF012E0CD108A98A4806F01EF88949BC
:1030E000874806F01AF8FFF79FFE33B0BDE8F08F6F
:1030F00001260027D5E740230DF1600A0193214600
:103100002046CDE90344079B0294CDF800A010AA05
:10311000FDF77EFA0028D7D1079803F065FD4FF040
:10312000FF320CA908A805F0E9FF41460CA803F0FE
:10313000F2FE32463B460CA805F0BEFF49460CA8FD
:1031400003F0E9FE9DF85410504603F0C2FE4FF024
:103150002E0B32AB441C18449DF8551000F868BC87
:103160000AEB040003F0B5FE32AB2044441C1844C3
:10317000BDF8561000F868BC0AEB040003F0A9FE85
:1031800032AB044423440134169903F868BC0AEBBB
:10319000040003F09EFE51460CA803F0BCFE0CA9EF
:1031A00008A805F0BAFF92E7314618AA04F1080012
:1031B0000C9500F00BFA78BB0324554B554822467A
:1031C000C01AC0088001544940F0030003F0B2FC6B
:1031D0004FF0FF324B494A4805F090FF4F494948AC
:1031E00003F099FE22464748E31705F065FF4CB906
:1031F0004B49444803F08FFE4A4B42481A68234625
:1032000005F052FF3F493E4805F087FFFFF70CFEEF
:103210000C9803F0E9FC68E74FF0FF3A4FF0000B21
:103220002A462846D046D9462F46319C18ABA242A2
:1032300027D1B9F1000F08BFB8F1FF3FBCD0002F74
:10324000BAD0002102F09AFF0CA9C0B2FFF78EF8A5
:103250000028B1D158EA0903324E0AD10C9B3060E4
:103260009A680023524573EB0B03A5DB2E4BC3F882
:1032700000A000213368494508BF434519D0002408
:103280009BE7197C032904D8DFE801F00206090E48
:10329000986801321433CAE7D3E90275F9E79968EF
:1032A0008A464FEAE17BF4E7996888464FEAE1797C
:1032B000EFE71D4A2B44116891468B4207D20C98C8
:1032C00003F0FFFCB5FBF0F303FB10502D1A306840
:1032D00010A92844FDF782F90E4B0D4A0446A3EBD2
:1032E00002084FEAD8084FEA881828B30F4948F077
:1032F000010003F01FFC60E73022022030000220B2
:1033000034220220442202207CA100003DB8F39622
:1033100008960000109600003DA2000079A1000070
:1033200046A2000054220220582202208BA1000055
:10333000FE9A000083A10000324B109A19689B4648
:103340008A4213D0304948F003001A6003F0F2FBC0
:10335000DDE910120C9803F08EFC044630B12246D1
:103360002A4948F0010003F0E5FB26E7326848F0FF
:10337000030AAB185046264903F0DCFB2B463A46BD
:1033800031680C9803F04EFC00287FF415AF3368C9
:103390001D44D9F8003035609D427FF470AF0C9821
:1033A00002F0ECFF10A9FDF719F9044608B119491C
:1033B0009DE7109ADBF800309A427FF760AF5046E5
:1033C000114903F0B7FBDDE910120C9803F053FC30
:1033D000044600283FF4F1AEC1E7002B7FF485AE30
:1033E000E379012B3FF443AE052B7FF47EAEFFF76C
:1033F000B7FD00214FF4005002F0A2FB0120FEF7C0
:10340000F1FF72E638000220B1A10000CFA1000058
:10341000EDA1000008A200002DE9F3411B4F00249C
:1034200005463E461A4BDFF86C8000941860C4F5E0
:1034300000712B6801AA0131381998470028019BB7
:1034400001DC002BF3D004442BB940F201239C4251
:10345000EDD10024EBE73378062B09D17378092BE3
:103460000BD1002300936946A01EFFF799FD04E0ED
:10347000042B02D17378142BF5D00128E9D10099DF
:1034800040460239FFF7CAFDE3E700BF7D41022055
:103490002C2202207E3F02202DE9F04107680546DC
:1034A0000C4617B90020BDE8F08100231A46D0F879
:1034B000088003F0CFFD88B1D4E900123E4803F044
:1034C0006BFE064650B90346024604F10801284641
:1034D00003F086FD10B126740120E4E700232146A5
:1034E0001A4628462F60C5F8088003F0B3FD80B166
:1034F000D4E90012314803F04FFE034648B90246B2
:1035000004F10801284603F0A5FD10B10120207444
:10351000C9E7002321461A4628462F60C5F80880CF
:1035200003F098FD80B1D4E90012254803F034FE81
:10353000034648B9024604F10801284603F050FD4D
:1035400010B102232374C7E7002321461A462846F8
:103550002F60C5F8088003F07DFD78B1D4E9001232
:10356000184803F019FE034640B9024604F1080169
:10357000284603F035FD08B10323E3E70023214685
:103580001A4628462F60C5F8088003F063FD00281E
:1035900088D0D4E900120C4803F0FEFD0346002851
:1035A00080D1024604F10801284603F053FD0028AB
:1035B0003FF478AF0423C5E7B39A00004AA20000A5
:1035C0004FA2000046A2000053A2000070B50125E2
:1035D0008CB0099009AE084405230A901446304681
:1035E0002A4607A90B9503F040FD002360B1142281
:1035F000CDE90143CDE9033205212846044B00966D
:1036000004F1640203F04FFD00F001000CB070BD46
:1036100099340000094A0A49936809689867D9678C
:1036200008494B6843F080534B60002383F31188B3
:10363000BFF36F8F9368D86F704700BFA02202203E
:10364000A899000000ED00E00F498A684FF03800AB
:103650001044EFF3098C80E8F01F202080F31188DC
:10366000BFF36F8F094F4FF00066CA698A603E60F2
:10367000906F0023936780F3118802F1380090E87F
:10368000F01F8CF309887047A022022004ED00E0AF
:103690001EF0040F0CBFEFF30880EFF3098081697F
:1036A00011F8021C0229FFD001B503F02BFD01BD6A
:1036B00043B2002B08DB012200F01F0002FA00F0E9
:1036C000024A5B0942F82300704700BF00E100E0B6
:1036D000054B420953F82220012300F01F0003FA92
:1036E00000F01040704700BF00E100E043B2002B43
:1036F00001F10101ACBF03F16043064B4FEA4111F8
:10370000C9B2ABBF03F5614300F00F0083F80013AB
:103710001954704714ED00E016461D4680B50F465B
:10372000044600F09DF92A4638463146044B2025D0
:1037300083F30988A04785F31188BFF36F8FFEE7F5
:10374000A86B0220014910220A60704710ED00E0CA
:1037500072B6404080F31188BFF36F8FBFF34F8F75
:1037600030BF62B6BFF36F8F704700BF72B649407B
:1037700081F3118820BF80F3118862B6704700BFC3
:1037800030BFFFF7FDBF00BF0E4A08B50E4B22F059
:103790007F029A60BFF34F8FBFF36F8FD3F88820FB
:1037A00022F47002C3F88820EFF3148323F004039B
:1037B00083F3148801F078FE01F080FE00F018F920
:1037C00001F0B8FE0000000000ED00E001B5EFF3ED
:1037D0000580A0F110004FEAC0000449014409C966
:1037E0009847BDE8014002490847000000940000E6
:1037F000C939000003F092F9202080F311880848AD
:103800004FF40061401880F30988EFF3148002211F
:10381000084380F31488BFF36F8FFFF7B5FF0000F4
:10382000A86B0220EFF30880EFF3098101B572461F
:1038300000F04EF801BD00BF0C4B9A6A9A6A9A6A72
:10384000920708D55A6B9A6A120604D518B19A6A7B
:1038500022F080029A620020044B9A6A9A6A9A6A5D
:103860009A6A42F0FF029A620870704700ED00E029
:103870000D4B9A6A9A6A9A6A920508D59A6B9A6A67
:10388000120404D518B19A6A22F400429A62002008
:10389000054B9A6A9A6AD20558BF9A6A9A6A42F4A4
:1038A0007F429A620870704700ED00E0074B0020ED
:1038B0009A6A9A6A9A6A9A6A9A6A9A6A9A6A9A6AE8
:1038C0006FEA02426FEA12429A62704700ED00E02E
:1038D00070B5364B0E465B6800258AB0C3F308030B
:1038E00085F31188BFF36F8F02F07F41B1F17F4FF5
:1038F00011D102F00C0108290DD0110701D40646A0
:1039000001250022033B8DF80720032B47D8DFE871
:1039100003F0043E423B2E46F3E7244BDA6A92075B
:103920003DD4DC6A14F0804408D028331B78EBB116
:1039300001200DF10701FFF77FFF04469DF80730D6
:1039400093B92022314602A803F036FC099B45B307
:10395000C3F3080222B96FEA53236FEA43230993A2
:10396000204602A903F0CCFB0AB070BD104B1B78B7
:103970002BB101200DF10701FFF77AFFDDE70D4BB9
:10398000188884B2002CD9D0FFF790FFD5E700202B
:103990000DF10701CFE700200DF10701ECE700244E
:1039A000CCE723F4FF7323F00103D8E700ED00E038
:1039B00029ED00E02AED00E0024A536943F01003CC
:1039C0005361704700ED00E0704700BFBFF34F8FB9
:1039D0000549064BCA6802F4E0621343CB60BFF3AB
:1039E0004F8F00BFFDE700BF00ED00E00400FA05C7
:1039F000002320210348C2180133412B82F8001311
:103A0000F9D1704700E100E010B5044601F0A8FFCD
:103A1000114B9B68A34207D1EFF3058383B10F4A93
:103A2000536843F0805353604FF02003EFF311804D
:103A300083F31188BFF36F8FBDE8104005F0CFBB53
:103A40004FF02003EFF3118083F31188BFF36F8FE2
:103A5000FFF7E0FDE8E700BFA022022000ED00E054
:103A60001FB5084B01210193074B68460293074B92
:103A7000074A039301AB0093064B00F02BF905B006
:103A80005DF804FB000002200000000006000100B9
:103A9000000002200000042010B50B680C7A23F00F
:103AA0001F0204F01F031A43CB68640923F01F03AD
:103AB000044943EA440343F001038860CA600B6190
:103AC00010BD00BF90ED00E00F2810B504460ED9E0
:103AD0000848094B22461B1ADB089B01074943F0A3
:103AE000010003F027F86FF01504204610BDFFF722
:103AF000D3FFFAE708960000189600005BA20000CA
:103B00002DE9F04F8046894614460027504D85B078
:103B10004F4533DA58F82730D3F804A0BAF1000F34
:103B20004CD0BAF11F0F1CD91AF01F0F19D1D3F8BE
:103B300000B01BF01F0F14D1584603F007FB0646D8
:103B40000AEB0B00013803F001FB86421AD06FF03C
:103B500015064048404B3246C01AC0083F49800114
:103B600006E03A463B483C4B3D49C01AC00880013C
:103B700040F0010002F0DEFF6FF01504204605B0B2
:103B8000BDE8F08F16F1160FE3D0631EB342E0DB01
:103B9000AE60E868AE602B6958F8271020F01F006F
:103BA00043F01F0BD1E900321A44984202F1FF3A68
:103BB00016D1D34504D1F0B203F0AFFA0137A7E72D
:103BC000AE60EB6822F01F0203F01F031A43EA60A5
:103BD000E0B203F0A2FA10F1160FCDD0441CEDE7CD
:103BE000AE602A69013B23F01F0302F01F0213435A
:103BF000D345E0B22B61ECD003F08FFA10F1160F31
:103C0000BAD0AE60EA689DF808300BF1FF3B62F372
:103C100004038DF808302B699DF808205B0863F3D6
:103C200047128DF8082058F827200130D2E90032D9
:103C30001344009323F01F035B44A3EB0A0323F018
:103C40001F036946C0B20393FFF73EFFC3E700BFFF
:103C500090ED00E01896000008960000A4A2000075
:103C600081A200000522034B5A60BFF34F8FBFF3C0
:103C70006F8F704790ED00E0BFF35F8F0022014B24
:103C80005A60704790ED00E038B50E4C2568102D55
:103C900014D8FFF7F1FF00200B4B0C4A1A63854242
:103CA00005D10B4B1D70FFF7DDFF002038BD6168AB
:103CB00001EB0011FFF7F0FE0130F0E74FF0FF30AD
:103CC000F4E700BFC897000090ED00E0AAFF4400B1
:103CD0007E43022010B5034C2278FFF711FF2070BD
:103CE00010BD00BF7E430220014B1860704700BF2B
:103CF0003C00022000F01F02054800EB8200D0F8D3
:103D0000003223F4403343EA0143C0F800327047E5
:103D10000025845008B5094B1A786AB901210D2095
:103D200019700521FFF7E2FC0D20FFF7C1FC4FF0F1
:103D30000042034BC3F80423002008BD7F43022048
:103D400000D00050284B70B5466828481340834285
:103D50003BD00DD8062B15D005D89BB1022B36D001
:103D60006FF0150030E0B3F5801FF9D1012309E0B1
:103D70001F4883422DD0B3F5A00F2CD0B3F5800F90
:103D8000EED10223D0064CBF0325C2F3401582F4C6
:103D9000807412F4007FC2F34020C4F3002406D0E4
:103DA00012F4006F766818D001228A40B26040EAAF
:103DB0004402002042EA032301F01F010D4A43EAB6
:103DC0008503803142F8213070BD0723DAE70423F0
:103DD000D8E70523D6E70323D4E7520542BF0122E3
:103DE0008A40F260E3E700BF0600F0000600100022
:103DF0000200400000258450F8B50D464168C768B0
:103E0000087A05F01F06B2F5A03F46EA40160AD12F
:103E1000674806F01F01803150F82110CC0707D504
:103E20006FF02200B7E0B2F5005FF96800F0A480FF
:103E30000121F868A9400143F96001217869A9408E
:103E4000B2F5A03FBA690CBF08438843B3F5C02F51
:103E50000CBF0A438A43B3F5802F4FF00003BA61C9
:103E60003A6978610CBF114322EA0101514A396174
:103E7000D2F80413C9B203F5A27052F82000C0F3BF
:103E8000042086427DD121FA03F0C00779D50121B3
:103E90009940CC434848D0E8EFCF0CEA040CC0E886
:103EA000EECFBEF1000FF6D19B0003F1A04303F566
:103EB0005043D3F8100520F00100C3F81005C2F8F4
:103EC000081300213046FFF715FFFB68EB4013F0A5
:103ED00001034FD07B69EB4013F001045CD0BB6958
:103EE0000022EB40DB0754BF396903254FF001077F
:103EF0005EBF21FA05F505F00105C5F102052E4961
:103F000058BFEDB207FA02F4D1E8EF0F40EA04031C
:103F1000C1E8EC3FBCF1000FF6D1D04010F0010336
:103F200034D1910001F1A04101F55041D1F81005C3
:103F3000403220F4473020F44070C1F810053602BA
:103F40009200D1F8100506F4F85692B246EA0546FA
:103F500002F1A04202F550420643C1F81065136019
:103F60001268D1F8102542F00102C1F81025114A5B
:103F7000C2F8044318460EE00120A84021EA0001DF
:103F80005AE70133082B7FF476AF9AE70132082A0B
:103F9000B8D16FF01200F8BD39693046E94001F040
:103FA0000101C1F10301C9B2FFF7A4FE2046F2E707
:103FB0000025845000D00050782202202DE9F843DB
:103FC0003F4F3E68002E4FD04FF001084FF00009E0
:103FD0003C4BDD68D3E905210A4325EA02053A4A4C
:103FE0001B6914695C4025EA040475BB3D603B68AD
:103FF000002301251F463548D0F8042305FA03F1B4
:10400000114211D09A0002F1A04202F5514211680A
:1040100051B103F5A27150F821101760C1F30421CA
:1040200005FA01F112680C430133082BE4D1ECB915
:104030004EB101260027234DEC68D5E905210A433E
:1040400024EA020454BBBDE8F88315EA080F06D041
:10405000002109F01F00FFF74DFE25EA080509F1D0
:1040600001094FEA4808C0E73446C1E7154B5968D3
:104070000029DDD00D68164F002D38BF00258A6855
:10408000224002D038464B689847002DD0D02B688C
:104090002946002B38BF00231D46F0E726420CD0EE
:1040A000296907F01F00F94001F00101C1F1030186
:1040B000C9B2FFF71FFE24EA060401377600C1E704
:1040C0007CD100505C2202200025845000D000509A
:1040D00014010220024B0B6001231360704700BFE4
:1040E0007C220220004870473898000010B503F089
:1040F00007FB034C206003F000FB6060002010BD54
:104100007C2202202DE9F0410E4619463046154624
:104110001C4603F0EFF870B384B316F003070CD01D
:10412000C7F10407A74228BF2746294630463A462A
:1041300000F0FEFA3E443D44E41B002724F003084F
:10414000B84507EB060011D16FF00303A20803FB8B
:10415000024205EB08010AB100F0EAFA084AD2F877
:104160000034DB07FBD50020BDE8F081E95900F001
:10417000CDFA0437E4E76FF01500F5E72046F3E7E2
:1041800000900350F0B54B79012B29D0032B24D19B
:1041900010268B79032B20D1CC7924B1012C1CD192
:1041A00043681B79CBB10A7912B1022A15D10E22CC
:1041B0000B684568B3F5164F2D6865D02DD8B3F55B
:1041C000165F64D016D8B3F5966F62D00AD8B3F5EF
:1041D000967F61D0B3F5167F61D06FF0220052E078
:1041E0000026D6E7B3F5166F5CD0B3F5965FF4D131
:1041F000374B3CE0B3F5E14F57D007D8B3F5615FDB
:1042000055D0B3F5964FE8D1324B30E047F6122740
:10421000BB42E2D14FF4000329E0B3F5613F48D03F
:1042200013D8B3F5963F47D009D84DF6C027BB4207
:1042300044D0B3F5614FD0D14FF46B0317E0B3F521
:10424000E13FCAD14FF0EB7311E0B3F5612F38D0E5
:1042500008D8214FBB4237D0B3F5E12FBDD14FF085
:10426000E86304E01D4FBB42B7D14FF08053C5F85F
:104270002435C36834432243043303C9C5F86C258D
:1042800083E803000020F0BD4FF41D03EFE7144B5B
:10429000EDE74FF49E23EAE74FF4A033E7E74FF44E
:1042A0001C33E4E74FF41D23E1E70E4BDFE70E4B31
:1042B000DDE74FF06C73DAE70C4BD8E74FF465039A
:1042C000D5E74FF07063D2E74FF08063CFE700BFD0
:1042D00000B0130000A04E0090D0030040420F0039
:1042E0000050270000C0750000F03A0000903A012D
:1042F00070B50546002201210820FFF7F7F90820D4
:10430000FFF7D6F900224FF000716B68EE681C6869
:10431000194BC4F80025356099600321C3F8641275
:10432000C3F860221923C4F80C351823C4F81435D7
:104330004FF0FF33E968C4F808352846C4F8103553
:104340000431FFF71FFFB0B90823C4F80035C4F8E3
:104350001001D4F8103106F11403C4F834350123E8
:10436000F268C4F8383592682360C4F84425C4F86C
:104370004805A360E36070BD0025845040EA010356
:10438000C3F30E0330B58BB940F21515094CC90BB8
:10439000C0F3C730994201D1002030BDC218D2B25B
:1043A00002F5C07244F822500133F3E76FF01500B4
:1043B000F3E700BF00300050054B1868043B1B6852
:1043C000092B03D1431E58425841704700207047C3
:1043D0003401FF0008B5474B1B68092B01BF4FF0A4
:1043E00050230022C3F81421C3F81821FFF7E4FF7B
:1043F00030B10123404A1360A2F63822C2F8783562
:104400003C4B1B68092B07D13C4B1B68012B1EBF83
:1044100001223B4BC3F87825FFF7CEFF10B10E22E7
:10442000384B1A60334B1B68092B04D10022364BE2
:104430001A6001225A600022D30003F57F03D3F8EB
:104440000013013108D0D3F800130132D3F804333C
:10445000B2F5807F0B60EFD12C4BDA69D1073BD5E9
:104460002B4B1946D3F80024012AFBD1C3F80425AD
:10447000D1F80034012BFBD1244BDA69D20708D5DF
:10448000DA69234922F00102DA61D1F80024012A15
:10449000FBD11A6A01320AD11A6A22F0FF0242F0F5
:1044A00020021A621A4AD2F80034012BFBD10022F2
:1044B000174BC3F80425D3F80024012AFBD1BFF31E
:1044C0004F8F1449144BCA6802F4E0621343CB6067
:1044D000BFF34F8F00BFFDE71B6A0133C0D00D4A09
:1044E000D2F88C3043F44063C2F88C300B4B0C4A4A
:1044F0001A6008BD3001FF00384A00503401FF0047
:1045000000400050E4AE03500C4700500080FF0014
:104510000090035000ED00E00400FA05680002205E
:104520000090D003044B1A7922B9012218601A7145
:104530000248704702487047842202200000AD0BF9
:104540000C00AD0B10B1012820D070474FF0502265
:10455000D2F81834D2F81814C90311D503F00303A4
:10456000022B0DD1C2F8183500220D4B1A601B68C2
:1045700002224FF05023C3F8042301229A607047AF
:104580004FF050230122C3F81825EDE70022054B18
:104590001A601B684FF05023C3F80403186070477B
:1045A000045100500051005038B510B1012818D006
:1045B00038BD4FF050230222012142F210751C46F3
:1045C000C3F80823154A10601268154A1160D4F820
:1045D0001834DB03ECD5012003F06CF8013DF6D173
:1045E000E6E74FF05024002242F210750D4BC4F85C
:1045F00008031A601B680C4B1860D4F80C34D4F80C
:104600000C2403F00103D203D2D5002BD0D001201B
:1046100003F050F8013DF0D1CAE700BF045100504B
:104620000C5000500051005004500050164B10B573
:104630001A6852B1002018601B6801224FF0502305
:10464000C3F80823114B1B689847114B1A688AB1AD
:1046500000221A601B684FF05023D3F81824D3F8B7
:10466000181402F00302012A4FF0020103D1C3F82B
:1046700018159A6010BDC3F80813044B0120BDE85B
:1046800010401B68184700BF0051005084220220D0
:10469000045100500022034BC3F88425C3F80425BD
:1046A000704700BF00900350002370B5074C934241
:1046B00000D170BD51F82350D4F80864F607FBD53B
:1046C00040F82350BFF35F8F0133F0E700900350B1
:1046D00008B5C0F30B0383B90222094BC3F8842544
:1046E000C3F804254FF0FF320260D3F80024D2074C
:1046F000FBD5FFF7CFFF034808BD0348FCE700BF29
:10470000009003500000AD0B0A00AD0B0122074BD7
:10471000C3F88425C3F80425D3F80824D207FBD5B1
:104720000160BFF35F8FFFF7B5BF00BF009003507C
:104730002DE9F843012315461D4A0446C2F8843585
:10474000C2F8043510F003030E46904614D0C3F1AE
:104750000407AF4228BF2F463A46A0EB030902F0F8
:10476000B6FFD8F80834DA07FBD5C9F80000BFF364
:104770005F8FED1B3C443E44AA0831462046FFF7BC
:1047800093FF15F003020ED025F003052C442046BC
:10479000711902F09CFF064AD2F80834DB07FBD5FA
:1047A0002060BFF35F8FBDE8F843FFF773BF00BF22
:1047B0000090035001680E4A0346914215D1C16929
:1047C000A2F11022A2F1EF1291420ED18268012AC9
:1047D0000BD8C26812B101698A4206D0586928B163
:1047E0009B691B1A5842584170470120704700BF0F
:1047F00055AA00FF0D4B70B59E68A6B13046FFF775
:10480000D9FF044678B9F3686BB935690DB920460C
:1048100070BD2846FFF7CEFF28B9EB68B34202D13E
:104820002E462D69F2E70124F1E700BF8C22022019
:104830002DE9F843404D2C68D4B1AC68C4B10028D0
:104840004DD000294BD001FB00F6B6FBF0F08842BA
:1048500045D1301D43D8B1070DD026F003070437EA
:10486000EC6803E06368BB423BD2A469002CF9D139
:104870002046BDE8F8833746F2E7E86044E007F1F8
:10488000200C04EB0C03203959600021DFF8B0E064
:10489000C3E902142169196144F80CE0DFF8A4C0EF
:1048A000C3F81CC001B1CB60C3E90520AAB1936174
:1048B0009A6902B15361236100234FF00109C4E9F1
:1048C00005332B69C4E90179DB072DD5FFF792FF8A
:1048D00050B31A4B48461B6825E0EB60E8E700241C
:1048E000C6E7A3681BB1154B01201B689847D4E9A4
:1048F0000520616804F12008C91B2329BFD80123C2
:10490000A360002AB9D09061A36903B15A61002362
:10491000C4E905332B69DA0706D5FFF76BFF18B139
:104920000120064B1B68984732460021404644460A
:1049300002F06DFC9CE700BF8C2202207000022078
:1049400055AA00FF669911EE2DE9F04105460028B1
:104950007CD03F4E3368002B78D0B268002A75D0E7
:10496000834203D872681344984203D3394B012021
:104970001B689847A5F120042046FFF71BFF18B1DC
:10498000344B01201B68984755F8183C012B03D085
:10499000304B01201B689847002355F8147C45F8DC
:1049A000183CAFB1BA6892B955F81C3C03F120022B
:1049B0007B6813447B6055F8103C3B6103B1DF60BA
:1049C00020462022002102F022FC23463C461F46BE
:1049D0002069002832D08368002B2FD16368426899
:1049E0002033134463600369D4E905212361DAB9F4
:1049F00001BB426981696261A161EAB19461A26906
:104A000002B1546103B1DC602022002102F0FFFBFF
:104A100033699B071AD5FFF7EDFEB8B1BDE8F04149
:104A20000C4B01201B6818479161A1690029E0D057
:104A30004A61DEE7F160F8E7F460E0E7002FE7D1D4
:104A4000F368A36103B15C61F460E1E7BDE8F08164
:104A50008C2202207000022038B50D46142200215D
:104A60000446124802F0D3FB1149124800F032F814
:104A7000232D1AD914F003031FBF043DED18C3F111
:104A80000403E4182A460021204602F0C0FB074B2D
:104A9000094AC3E900459C602260A2F11022203D32
:104AA000A2F1EF126560E261DC6038BD8C22022069
:104AB000494900003148000055AA00FF014B1B681E
:104AC000184700BF6C000220014B1B68184700BF4D
:104AD00074000220024B1860024B002019607047DE
:104AE0006C000220740002200A4619B1024B00211A
:104AF0001B681847704700BF78000220F8B500F126
:104B000008064768044630460D4603F045FA8742DA
:104B100016D16368B3F5807F12D80021304603F0C8
:104B2000B2FB00280CDD0021304603F008FA38B152
:104B300045B9002104F1140003F0A5FB00281EDC98
:104B40001B481EE004F12C060021304603F09BFBBD
:104B50000028F5DD0021304603F0F1F90028EFD000
:104B600004F138060021304603F08DFB0028E7DD14
:104B70000021304603F0E3F90028DAD1E0E70DB96F
:104B80000020F8BD002104F1440003F07CFB002864
:104B9000D6DD002104F1500003F075FB0028CFDDC5
:104BA000002104F15C0003F06EFB0028E8DCC7E79D
:104BB00080BFFFFF70B500210446FFF79FFF054649
:104BC000B8B904F10806304603F0CAF97F2810D9B5
:104BD00014342946204603F0B2F950B1204603F0C0
:104BE000BFF9012805D93146204603F009FB00280A
:104BF00000DB014D284670BD00BEFFFFF0B50C463E
:104C000087B0002105461646FFF778FF80BB03A852
:104C100003F00FF921466A6803A803F0C3F90446BC
:104C2000D0B905F10804214603A803F0E9FA0028E9
:104C30001BDA05F1680303A900930846234605F132
:104C400014026F6803F071FE044628B93A463146F3
:104C500003A803F0DFF9044603A803F0F0F80CB151
:104C6000A4F58544204607B0F0BD6FF00304F3E7D8
:104C7000004CF7E780BFFFFF0023C0E90033C1B954
:104C8000194A1A4BDFF88CC0C0E90223184B194AA5
:104C9000C0E904C3184BC0E90623184B036203F1B3
:104CA0007453A3F52303A3F6924343628166002065
:104CB0007047134B134ADFF860C0C0E9022303F1C9
:104CC000794303F5740303F5016303610E4BC0E9F7
:104CD00005C303F1D14303F5C01303F51E63C3619C
:104CE0000A4B03620A4BE0E767E6096A85AE67BBD9
:104CF0003AF54FA57F520E518C68059BABD9831FA7
:104D000007D57C36D89E05C1310BC0FFA78FF9644B
:104D1000A44FFABE72F36E3C39590EF72DE9F04FED
:104D200000F10803D1B0059308AB009300F128030C
:104D30000693009A059B53F8040B42F8040B06985F
:104D40009842F8D10DF140094A4601F140004B78F4
:104D50000C781B0443EA0463CC780431234311F834
:104D6000024C884243EA042342F8043BEFD19D48B9
:104D7000CA468646009B0099D3F81CC0D3F8108021
:104D8000D3E9056BD3E90072C9689B680190DEF82E
:104D90000000DAF800404FEAF82585EAB81520440B
:104DA00085EA786505448BEA060000EA080080EA97
:104DB0000B00054447EA02044FEA7730AC4480EA2E
:104DC000B70007EA02051C4080EAB7502C430444B0
:104DD000DEF80450DAF8040061440544AB4488EA84
:104DE00006050D40A44485EA06040BEB04054FEAD2
:104DF000F12B8BEAB11B8BEA716BAB444CEA0700D9
:104E00004FEA7C350CEA070485EABC0510402043D4
:104E100085EABC55DEF808400544DAF808005B4432
:104E20000444264481EA08041C405D4484EA080BDB
:104E300006EB0B044FEAF32686EAB31686EA73669E
:104E400026444CEA05004FEA75340CEA050B84EA67
:104E5000B504384040EA0B0084EAB55404443444B5
:104E60003244DEF80C00DAF80C6081EA030B3044BF
:104E70000BEA020B4FEAF2268BEA010B404486EA6A
:104E8000B216584486EA7266064407EB06084FEAF3
:104E9000743045EA040705EA040B80EAB40007EA27
:104EA0000C0747EA0B0780EAB45038443044DAF87C
:104EB0001070DEF8106083EA020B3E4431440BEAC6
:104EC000080B4FEAF8268BEA030B86EAB81659441A
:104ED00086EA78660E4444EA00074FEA703104EA35
:104EE000000B81EAB0012F4047EA0B0781EAB0517D
:104EF00039443144B444DAF81470DEF8146082EABC
:104F0000080B3E4433440BEA0C0B4FEAFC268BEAB9
:104F1000020B86EABC165B4486EA7C661E4405EBFF
:104F2000060B4FEA713340EA010500EA010725400C
:104F300083EAB1033D4383EAB1532B443344DEF8A3
:104F40001850DAF818600EF1200E3544154488EA3E
:104F50000C0202EA0B0282EA0807EA194FEAFB2573
:104F600085EABB1585EA7B65154466194FEA7332FD
:104F700041EA0304044001EA030782EAB3023C4326
:104F800082EAB35222442A445EF8044CDAF81C50F8
:104F90000AF1200A6719B8448CEA0B07374087EA00
:104FA0000C0747444FEAF62888EAB61888EA76687C
:104FB000474400EB070843EA02044FEA723080EAF4
:104FC000B2000C4003EA020580EAB2502C430444CC
:104FD0000548274470457FF4DAAE09F1C000079018
:104FE00004E000BF94980000D4980000D9F838007D
:104FF000D9F804504FEAF04E8EEA704ED9F80040CE
:105000008EEA902ED9F824004FEAB54A20448AEA65
:10501000F51A8AEAD50A86444FEAF8240EEB0A000C
:1050200084EAB814049084EA78608BEA060404EAFF
:10503000080484EA0B040444019888EA060E006C14
:1050400009F120092044049C2044844461440291D5
:1050500047EA02004FEA7731C9F8204081EAB701F8
:1050600007EA0204184081EAB75120430844D9F8FE
:105070001C1084444FEAF14080EA714080EA91209C
:10508000D9F8081059F8184C2944014402984FEAFD
:10509000B4450EEA000E019885EAF415406C85EAE5
:1050A000D4052944584408448EEA060E86440298E2
:1050B000C9F824104FEAF02585EAB01585EA706535
:1050C00005EB0E0003EB000B4FEA7C3547EA0C03BF
:1050D00007EA0C0E85EABC05134043EA0E0385EA95
:1050E000BC551D44049B05444FEAF34080EA7340DD
:1050F00080EA9320D9F80C3059F814EC2344034487
:1051000002984FEABE4488EA000A019884EAFE1435
:10511000806C84EADE0423440AEA0B0A30444FEA36
:10512000FB2418448AEA080A84EABB1484EA7B64F4
:10513000824404EB0A0002444CEA05044FEA753647
:10514000039286EAB5060CEA05023C4086EAB556AB
:105150001443344404444FEAF14080EA714080EA49
:105160009121D9F8100059F8102C864471444FEA67
:10517000B24E8EEAF21E8EEAD20E8E440299039847
:1051800081EA0B0101400298C9F82830414001989A
:10519000C66C0398464476443144039E4FEAF0209F
:1051A00080EAB61080EA7660461845EA040005EA0F
:1051B00004014FEA743800EA0C0088EAB408084396
:1051C0004FEAF34188EAB45881EA7341404481EAE6
:1051D0009323D9F81410304407EB060A59F80C6CE5
:1051E0000A4413444FEAB64282EAF61282EAD60231
:1051F0001A44039B02998BEA0307019B07EA0A07FB
:105200001B6D87EA0B0713440B444FEAFA2181EA2E
:10521000BA111F4481EA7A61CB1944EA00074FEAC8
:10522000703104EA000881EAB0012F4047EA08071C
:1052300081EAB051394419449C4459F8088CD9F892
:1052400018304FEAFE4787EA7E47C9F82CE087EA24
:105250009E2E9F194FEAB84383EAF81383EAD803D6
:1052600077441F44039BC9F8302083EA0A0E0EEAF4
:105270000C0E8EEA030E019BC9F834705B6D3B4443
:105280005B449E444FEAFC2383EABC1383EA7C63BD
:1052900003EB0E0605EB060B4FEA713340EA0105FE
:1052A00000EA010E254083EAB10345EA0E0583EAD0
:1052B000B1532B443344D9F81C504FEAF24659F805
:1052C00004EC86EA724686EA922205EB080616444A
:1052D0004FEABE4282EAFE1282EADE021644019AD8
:1052E0008AEA0C08956D039A3544154408EA0B08C0
:1052F0004FEAFB2288EA0A0882EABB12454482EAA6
:105300007B621544C9F838604FEA7332661941EA86
:105310000304044001EA030882EAB30244EA0804F1
:1053200082EAB35222444FEAF74484EA77442A449B
:1053300084EA9727D9F80050049CA6444FEAB54464
:1053400084EAF51484EAD505019C7744E46D3D4474
:105350008CEA0B0E2C440EEA060E4FEAF6278EEA74
:105360000C0E544487EAB617744487EA76672744DC
:1053700000EB070843EA02044FEA7230C9F83C50D8
:1053800080EAB2000C4003EA020580EAB2502C43E6
:1053900004440198274420300190079848457FF441
:1053A00025AECDE90D6BCDE90872CDE90A31CDF816
:1053B0003CC0CDF83080059B00991B6851F8042B48
:1053C0001344059A009142F8043B069B05929342D0
:1053D000F1D1002051B0BDE8F08F00BFF8B5104BFF
:1053E000104F53F82050013053F82060AE4200D8DF
:1053F000F8BDD5E900342046984770B16CB101235F
:10540000E41B094A2411610952F8210004F01F0429
:1054100003FA04F4044342F821400835E6E700BFEC
:1054200094990000E400022044010220084BC01AB5
:105430000011084B420953F82220012300F01F00FD
:1054400003FA00F010420CBF18460020704700BF5E
:10545000E400022044010220114970B505460E46C1
:10546000104C8C4204D10F4CB4420AD1002414E0F9
:105470002046FFF7DBFF10B12368AB420DD010349C
:10548000EFE72046FFF7D2FF08B91034ECE72846D3
:10549000216801F075FE0028F7D1204670BD00BFDD
:1054A00044010220E40002200248034A0021121AAB
:1054B00001F0ADBEC0010220A443022008B5064899
:1054C000064A0749121A01F077FEBDE80840054A6E
:1054D0000549064801F070BE00000220BC01022010
:1054E00028A300000000000028A300000000022004
:1054F000012208B50A4B02201A70FFF76FFF094A14
:1055000009490A4801F075F90320FFF767FFFAF728
:1055100097FF074A137B23F00103137308BD00BFF5
:10552000A043022039A00000F1A20000FDA200006B
:10553000C001022008B5FCF76BFC124B83F308880E
:105540000025E023104C84F82230E5772576657637
:10555000A576636A43F4E0236362FEF72DFAFEF753
:10556000F1F84FF0FF332846A362E362FFF736FFFE
:105570000120FFF733FF2B462A4629460348FEF752
:10558000CBF800BFA873022000ED00E0F15400004A
:1055900070B50E4B0E4CA34201D3002070BDD3E971
:1055A000030141EA000212F003020BD19D685A6127
:1055B000AA4201D11C33EEE75E6901320E605961E7
:1055C0000144F5E76FF01500E8E700BF480102204D
:1055D00048010220D3B50C4616461F464FF0200363
:1055E000EFF3118183F31188BFF36F8F43695BB1D0
:1055F00023601B684361836901338361002081F369
:105600001188BFF36F8F11E056EA070203D16FF0E4
:105610000B002360F3E70246CDE90067044800F081
:105620003BFA18B9034B9B685B69236002B0D0BD9D
:10563000A1430220A022022070B504460D464FF07F
:105640002003EFF3118683F31188BFF36F8F03F00C
:105650004EFE58B100212A68C167426103F0ECFD9B
:105660003146BDE87040084800F0CCB82B6862694C
:105670001A602B686361A369013BA36186F31188FB
:10568000BFF36F8F70BD00BFA14302202DE9F3412E
:10569000044616461F464FF02003EFF3118883F3AC
:1056A0001188BFF36F8FC368324A6BB1806891680D
:1056B000884219D056EA070318D188F31188BFF33E
:1056C0006F8F6FF00F000CE0916891F90E100133AD
:1056D000E36093682161A36088F31188BFF36F8F43
:1056E000002002B0BDE8F0812169F0E790F90E30AA
:1056F00091F90E109942A8BF194621EAE171994229
:105700002CDA00F0D9F9054622464146CDE900677A
:10571000194800F0C1F90028E3D04FF02003EFF35F
:10572000118683F31188BFF36F8F23682169A34229
:1057300007D033B193F90E309942A8BF194621EA38
:10574000E171A06890F90E30994209D16DB13146EE
:10575000094800F057F86FF00A00C2E70025D3E7C8
:1057600000F0AAF90028F2D1F0E786F31188BFF320
:105770006F8FF0E7A0220220A143022038B5836892
:105780000446002B33D01D4A9268934232D1C3683D
:10579000012B05D0013BC36003F037FD002038BD6D
:1057A0004FF02003EFF3118583F31188BFF36F8F60
:1057B0000169806890F90E30994201D000F07CF9BF
:1057C000204603F094FDA06058B190F90E202261AC
:1057D0000022C26703F030FD2946094800F012F8A4
:1057E000DAE7E06085F31188BFF36F8FD4E76FF0DD
:1057F0001500D4E74FF0FF30D1E700BFA022022010
:10580000A143022049B9EFF3058030B9054BDA69AD
:105810009B689A4201D0FDF7FDBE81F31188BFF36A
:105820006F8F7047A0220220094B03F120028242B1
:1058300005D19B688B4202D14B7BDB0606D1D1E9B7
:10584000003213605A600023C1E90033704700BF83
:10585000A02202200D4A10B5044602F1200003F0F8
:10586000E1FC9368597B11F0200F1CBF41F0080147
:10587000597300B9D06834B9597BC90603D181691D
:10588000002908BF1846D06110BD00BFA022022029
:1058900070B4437BDB062AD1836943BB154A1146AA
:1058A00051F8204F8C4218BF2346002B38BF0023ED
:1058B000546AB3B190F90E6093F90E50AE4203DB17
:1058C000A3420ED01B68F4E75A68C0E900321060AA
:1058D0005860437B63F07F03437370BC0020FFF785
:1058E000B9BFC0E90014536A18605062F1E770BC98
:1058F000704700BFA022022070B50446183003F0A4
:1059000023FD4FF02003EFF3118683F31188BFF3DB
:105910006F8F94F90D30002B07DA21460E48FFF700
:1059200083FF637B03F07F0363730C4D637BA86885
:1059300043F010036373031B58425841FFF78AFF7B
:1059400086F31188BFF36F8FAB68A34203D1BDE824
:10595000704003F050BC70BDC0220220A022022083
:10596000036E2DE9F041044603B1984704F1180095
:1059700003F0EAFC4FF02003EFF3118683F3118864
:10598000BFF36F8F637BD80623D1A2690ABB1906C8
:1059900007D521461E48FFF747FF637B03F07F03CF
:1059A00063731C4B9868021B50425041FFF752FF33
:1059B0000027637B04F1300843F008036373256B11
:1059C000454500D095B986F31188BFF36F8FBDE8C8
:1059D000F0819B07ECD52146A068FFF725FF637B8C
:1059E00023F0020363730023A360E1E705F11800CD
:1059F00003F0AAFCA8682946FFF716FF6B7B284630
:105A000023F002036B73AF60EF67FFF741FFD6E748
:105A1000C0220220A022022008B590F90D300146D4
:105A2000002B06DA0748FFF7FFFE4B7B03F07F03EE
:105A30004B73054B9868431A58425841BDE80840DB
:105A4000FFF708BFC0220220A02202202DE9F0416A
:105A5000064614461D464FF02003EFF3118783F3EB
:105A60001188BFF36F8F03F017FC87F31188BFF322
:105A70006F8F6B1C08BFB4F1FF3F08D022462B4646
:105A800006F118000349BDE8F04100F0D5B8BDE8C3
:105A9000F08100BF5992000010B50C460548114630
:105AA000DDE902238068FFF7D1FF2046BDE8104002
:105AB000FDF7B0BDA02202202DE9F04104464FF0D1
:105AC0002003EFF3118883F31188BFF36F8F437BBB
:105AD0004EB2DB062ED1856965BB184F214607F112
