:020000040000FA
:1000000090940020B56000006BC50000E560000022
:10001000E5600000E5600000E56000000000000011
:10002000000000000000000000000000E95E000089
:10003000E560000000000000A15E000055C2000065
:100040008D6000008D6000008D6000008D600000FC
:100050008D6000008D6000008D6000008D600000EC
:100060008D6000008D6000008D6000008D600000DC
:100070008D6000008D6000008D6000008D600000CC
:100080008D6000008D6000008D6000008D600000BC
:100090008D6000008D6000008D6000008D600000AC
:1000A0008D6000008D6000008D6000008D6000009C
:1000B0008D6000008D6000008D6000008D6000008C
:1000C0008D6000008D6000008D6000008D6000007C
:1000D0008D6000008D6000008D6000008D6000006C
:1000E0008D6000008D6000008D6000008D6000005C
:1000F0008D6000008D6000008D6000008D6000004C
:1001000053B94AB9002908BF00281CBF4FF0FF317E
:100110004FF0FF3000F06CB9ADF1080C6DE904CE82
:1001200000F006F8DDF804E0DDE9022304B07047D2
:100130002DE9F047089E0D4604468E46002B40F000
:1001400082808A42174646D9B2FA82F24AB1C2F197
:10015000200105FA02F320FA01F1974041EA030E6B
:1001600094404FEA1748230CBEFBF8FCB9B208FBD9
:100170001CEE43EA0E430CFB01F098420AD9FB182F
:100180000CF1FF3580F01681984240F21381ACF1FA
:10019000020C3B441B1AA4B2B3FBF8F008FB10336B
:1001A00044EA034400FB01F1A14209D93C1900F1E2
:1001B000FF3380F00181A14240F2FE8002383C44CE
:1001C000641A40EA0C4000211EB1D4400023C6E965
:1001D0000043BDE8F08702B9FFDEB2FA82F2002ADE
:1001E0004FD1CB1B4FEA174E1FFA87F80121B3FB03
:1001F000FEFC250C0EFB1C3345EA034508FB0CF303
:10020000AB4207D97D190CF1FF3002D2AB4200F2AC
:10021000E7808446ED1AA3B2B5FBFEF00EFB105545
:1002200043EA054408FB00F8A04507D93C1900F152
:10023000FF3302D2A04500F2D7801846A4EB080491
:1002400040EA0C40C0E78B4208D9002E00F0AF8096
:100250000021C6E900050846BDE8F087B3FA83F13E
:1002600000294BD1AB4202D3824200F2B780841AFC
:1002700065EB030301209E46002EAAD0C6E9004E7E
:10028000A7E7C2F1200C01FA02F3974020FA0CF024
:100290004FEA174E21FA0CFC1843BCFBFEF1050C8B
:1002A0000EFB11CC1FFA87F845EA0C4501FB08F359
:1002B000AB4204FA02F409D97D1901F1FF3C80F048
:1002C0008B80AB4240F2888002393D44EB1A85B204
:1002D000B3FBFEF00EFB103345EA034500FB08F3C9
:1002E000AB4207D97D1900F1FF3C71D2AB426FD907
:1002F00002383D44EB1A40EA014178E7C1F1200C95
:100300008B4022FA0CF71F4320FA0CF405FA01F394
:100310004FEA174E25FA0CF51C43230CB5FBFEF9EA
:100320001FFA87F80EFB195543EA054509FB08FA41
:10033000AA4502FA01F200FA01F308D97D1909F180
:10034000FF3047D2AA4545D9A9F102093D44A5EBA2
:100350000A05A4B2B5FBFEF00EFB105544EA0544B5
:1003600000FB08F8A04507D93C1900F1FF352DD254
:10037000A0452BD902383C4440EA0940A4EB0804CC
:10038000A0FB02894C45C6464D4619D316D05EB136
:10039000B3EB0E0264EB050404FA0CFCCA404CEA11
:1003A0000202CC40C6E900240021BDE8F0873146B6
:1003B00030460EE7AC46EDE6184601E74345E6D287
:1003C000B8EB020E69EB07050138E0E72846D3E7F2
:1003D00060468FE78146BAE7614677E708464BE714
:1003E000ACF1020C3D4415E702383C4426E700BF5F
:1003F000704700BF10B501F075FE094C002001F0F8
:100400005DFD0028FAD123782BB900214FF47670D6
:1004100009F074FCF2E70348BDE8104009F094BC11
:10042000C6380020D002002010B588B00D4C0E490F
:100430004FF476720023CDE9062300236FF00F02FC
:10044000CDE90323CDE9013300934FF44072074B0C
:10045000204609F0F3FC0649204608B0BDE81040EC
:100460000EF0CFBAE803002090610020F5030000F1
:10047000D8F20000044B01221A7004484FF0FF32FA
:100480004FF0FF3309F080BCC6380020D0020020B6
:100490002DE9FF41484B494C4948E41AE408A401BE
:1004A00044F003010BF0CDF800F0D8F8FFF7BCFFE3
:1004B000444800F09BF830B94249434844F00102F7
:1004C0000BF0CCF8FEE7414808F066FEC66805462A
:1004D00083684FF488721B681521984718B93368F0
:1004E00023F400133360AB6801A95B682846984782
:1004F00098B9019B9A0210D44FF08043D3F800348E
:100500000BB1DB0709D5324844F003010BF099F831
:1005100005F04AF82F4805F0ABFB01A800F0DEFD1E
:10052000054628B12C4844F001010BF08AF8FEE79B
:1005300044F003063246039928480BF08FF8284808
:1005400031460BF07EF828464FF4903106F01CFD42
:1005500044F00104054620B1224821460BF071F811
:10056000FEE7FFF787FF9DF80800694600F04AF8AC
:10057000009B039E1E44019B1F8906EB07084FF05A
:100580002002EFF3118382F31188BFF36F8F0BF01A
:1005900062FE02F007FC01F07FF801F053F8F35916
:1005A00083F3088885F31488D8F8043098470E48F8
:1005B00021460BF046F8FEE7B8ED0000C8ED00005C
:1005C000E0F20000F4F2000007F3000021F3000065
:1005D00028F3000048EE000047F3000065F3000038
:1005E0008FF30000AFF30000DDF3000010B5044C02
:1005F000236813B908F0D0FD2060206810BD00BF4B
:10060000C806002008B50B46014668B1074A084BEA
:1006100008489B1ADB089B0143F0010300220BF002
:1006200031F86FF0150008BD1860FCE7B8ED000068
:10063000C8ED0000FBF300001FB5074A03460C4657
:10064000106801AA19460CF04AF918B9019B2360F9
:10065000029B636004B010BDC806002002484FF43E
:10066000C05108F09BB800BFC73800202DE9F04FFB
:10067000F9B0DDE9844838A8DDF808B2869E154651
:100680001F460DF0EBFD002138A808F097F93CB1AA
:10069000B8F1000F04DD4246214638A80DF0E2FD16
:1006A0006B89B5F808809844EB684FF000099844CE
:1006B000C84529D80DA938A80DF011FE26B1202271
:1006C0000DA930460BF085FF002300933A464FF604
:1006D000FF73294607A80AF015F8044680B9DFF829
:1006E0006C91064680464FF0FF350DF1160305AAC2
:1006F00006A907A80AF052F800281FDA4FF0FF34C5
:10070000204679B0BDE8F08F839AA8EB09039A429E
:1007100028BF1A461346924649465A4638460BF0B9
:1007200032FC04460028EBD15246594638A80DF059
:1007300099FDD144BCE74FF0FF35D6E77AD1BDF83B
:100740001640102C17D1BDF81480B8F1200FD5D168
:100750000699434638AA38460BF015FC0446002893
:10076000CED1424638A90DA80BF023FF0028C5D1F1
:100770004FF00108B9E7012C36D1BDF81430202B19
:10078000BCD8069938AA38460BF0FDFB0446002871
:10079000B6D19DF814B0BBF1200F03D94FF0FF3450
:1007A0002546A2E7D9F80030274D0393039B9C42CE
:1007B000F4DA1DA80DF052FD00211DA808F0FEF886
:1007C0006B6855F8081B1A681DA80DF04BFD15A99C
:1007D0001DA80DF084FD5A4638A915A80BF0E9FEB6
:1007E0000028DDD00134E1E7202C7FF47EAF002D1E
:1007F000A1DBD9F80030AB429DDDBDF81430B3F574
:10080000807F7FF47BAF069938AA38460BF0BBFB9C
:1008100000287FF473AFEDB20095BDF8143038AA0C
:1008200021460DA800F014F800284FF0FF3508BF4E
:1008300001265AE7B8F1000F3FF460AFB6FA86F030
:10084000400944425CE700BF54EE000050EE000057
:100850002DE9F0479046ADF54A7D002207468946CE
:1008600027A811469DF848531E460DF0B3FC724B65
:1008700053F83540029403EBC5038AAA5B681968F4
:100880000C443023214602A80CF0A5F910B14FF01A
:10089000FF340DE0029B8A9A13449C4240F0C880CA
:1008A00029AA214602A80CF0AAF948B16FF0020467
:1008B00027A80DF09AFC20460DF54A7DBDE8F0878B
:1008C0000DF1B00A5246214602A80CF098F90546EF
:1008D0000028EBD129A80CF06CFD029B28909C42CB
:1008E00040F0A380CDE9005A2B462A4629A927A823
:1008F0000DF02CFC002840F0958027A807F0FCFFA5
:100900000446002840F08B8029A80CF052FD864256
:100910002890CDD1B6F5807FB9D1B9F1200FB6D1ED
:100920008AAA414627A808F00BF804460028AED151
:100930009DF82733BC2BAAD10DF5A4780390DF26B0
:1009400045460CA80DF08AFC00210CA808F036F8EA
:1009500020220DF207310CA80DF084FC042203A91B
:100960000CA80DF07FFC04A90CA80DF0B8FC1F2EFC
:100970009DF80F30D4BFB1464FF0200901334046F7
:100980004A4604A9A6EB09068DF80F300BF021FEAC
:10099000002EC844D5DCAC468AAB2946DF22087855
:1009A00013F8016B013A80EA060001F8010BF6D159
:1009B0002B7803F07F032B701CF8016B002E7FF463
:1009C00066AF0134BE2CF7D195F8BE30012B7FF411
:1009D0005EAF0CA80DF042FC31460CA807F0EEFF0C
:1009E000164908220CA80DF03DFC202239460CA81F
:1009F0000DF038FC20220DF207210CA80DF032FC7E
:100A000004A90CA80DF06BFC20220DF2073104A8FC
:100A10000BF0CFFD041E18BF0124644248E76FF0BD
:100A2000050445E76FF0040442E76FF003043FE775
:100A30006FF001043CE700BF54EE00001CF400001E
:100A400030B50C46816887B0102302AA10390546DC
:100A500009F043FE002802DA012007B030BD01286A
:100A600037D103232370A96801230DF10702283928
:100A7000284609F032FE0028EEDB9DF807300128F9
:100A800003F00F024FEA13136270237101D0042A9E
:100A900003D90123637000232371A9680123A21CD9
:100AA0002039284609F019FE0028D5DB01281AD183
:100AB0000323A370A9680123E21C1839284609F012
:100AC0000CFE0028C8DB012813D10323E3700020AB
:100AD000C3E70B49102202A80BF06BFD002814BFDE
:100AE00002230123BEE7A378012B0CBF01230223BD
:100AF000DFE7E378012B0CBF01230223E6E700BF09
:100B00005CEE00002DE9F04186B00223DFF86C8036
:100B1000ADF800300D466F46002617F8010B01A90D
:100B200003F076F80446D8B901988168102302AA28
:100B300010390BF028FA044628B101980BF022FA7C
:100B40000EE00126E9E71022414602A80BF031FD34
:100B500050B101980BF016FA002EF2D04FF0FF348E
:100B6000204606B0BDE8F0810198816804232A463A
:100B700030390BF008FA0446DFE700BF5CEE0000F6
:100B80008168054A08B5103910230BF019FA0038AE
:100B900018BF012008BD00BF5CEE00002DE9F04346
:100BA00085B06946022009F09FFE18B1FF2005B00C
:100BB000BDE8F08302A9052009F096FE0246002850
:100BC000F4D19DF800509DF808609DF803709DF8E1
:100BD0000B809DF80290244C2078294609F056FE9F
:100BE000F8B16078314609F051FED0B1A378042BFA
:100BF00001D0BB4215D1E378042B01D0434510D17D
:100C00002379042B0BD1194B194AD21A6379D208D4
:100C10009201022B42F0030214D1164919E04B4510
:100C2000F1D00132032A04F10604D5D10F4B10494B
:100C30001148C91AC908890141F003010AF001FDF0
:100C40000120B4E7032B0CD00C490D48042B08BF3E
:100C500001460C480AF002FD6079831E022BA6D9DA
:100C6000A4E70949F5E700BF65F40000B8ED00000E
:100C7000C8ED000042F4000055F400002BF4000021
:100C800024F4000047F400003DF40000F0B50546F0
:100C900089B000200C4609F015FD06A9C0B202F08B
:100CA000B7FF002863D1214609F00CFD2C2607A9C7
:100CB000C0B206FB045602F0ABFF98B12C2363438D
:100CC000E818016911F010011CD0002C33D028461F
:100CD000069909F019FF254606980BF053F92846A6
:100CE00009B0F0BD079809F0F6FC074607980BF02D
:100CF00049F9731EF21C9342E7D013F8011FB94261
:100D0000F9D0DBE7EA581B4B9A4216D024B106987B
:100D1000002182680BF07DF9174B184A18491948D1
:100D2000D21AD208184B920142F00102002C08BFDF
:100D300019460AF093FC0125CEE7C2680089C34337
:100D40009A42E3D8069B024498688242DED24FF46E
:100D5000807201920D4A0092CDE903110291324650
:100D60000846FFF783FC05460028B5D0CEE74FF0D4
:100D7000FF35B4E73DB8F396B8ED0000C8ED0000CC
:100D80007FF4000089F4000077F400002C130020A9
:100D900073B50D46044600212846CDE9001109F03F
:100DA00072FE60B3194E2268B24203D101AA2046F6
:100DB00009F0E1FDE36AB34204D16A46012120460D
:100DC00009F0D9FDDDE90032934288BF0193019B10
:100DD000AB602946019A204600F032FB0C4B1968A3
:100DE000002909DD0B4A0C4B0C48D21AD20892019B
:100DF00042F002020AF032FC002002B070BD05F1A0
:100E00000801FFF77FFEAB680193E2E73DB8F39678
:100E10002C140020C8ED0000B8ED0000ACF4000078
:100E20002DE9F04B099FDFF84CB00E4690469946ED
:100E30000024BC4201D300200EE03D1BB5F5806FBD
:100E400028BF4FF480650B4A2B4604EB090130465E
:100E50000BF099F810B10120BDE8F08B08992B46F2
:100E60005A46611840460BF0ABF80028F3D12C44E9
:100E7000DFE700BF2C070020F0B5602285B00446F4
:100E80000E4600210BF0D0FB8C4B636200218C4B93
:100E90002365084609F016FC04F12001C0B202F0F7
:100EA000B7FE0121002009F00DFC04F14C01C0B295
:100EB00002F0AEFE204609F0BEFD054660B1814A53
:100EC000814B8248D21AD208920142F0020280215C
:100ED0000AF0C4FB012398E002460146204609F0CF
:100EE00092FD074648B1774A774B7948D21AD20823
:100EF000920142F002022946EAE7204600F0AAF9F0
:100F00000028E7D0684609F0B5FD6946204609F09B
:100F10004FFE054648B16B4A6B4B6E48D21AD20859
:100F2000920142F002023946D2E7684609F0ABFD71
:100F300080F001016A46C9B2204609F064FD02460C
:100F40000028D0D1684609F09EFD054690BB694651
:100F50002046FFF71DFF9DF8073084F85830033B0B
:100F6000012B06D8284609F06AFE10B1FF2384F849
:100F700058309DF80730023B022B11D8002009F0B1
:100F80004CFE68B1FF2384F858304E494E4B52480E
:100F9000C91AC908890141F001010AF052FBFEE7B4
:100FA00094F85830FF2BF0D06A460021204609F013
:100FB0002AFD8FE79DF80770012F20D11046FFF71B
:100FC000EDFD831E022B054608D839462046FFF763
:100FD0005DFE012811D0002818BF052584F858505F
:100FE00094F858308DF80730042B14D8012B18D8FA
:100FF0002AD0FF2384F8583026E00546EEE7012189
:101000002046FFF743FE18B1052384F85830E7E780
:101010009DF80730F9E7052BEBD1002009F00FFE12
:1010200010E069462046FFF7B3FE94F85830DA1E08
:10103000012A18D8002009F002FE0028D9D100208A
:1010400009F0EBFD0028D4D194F85830FF2B0DD1D6
:101050001C491D4B2048C91AC908890141F00101EA
:101060000AF0EFFAFEE7022BEED1E8E7012B07D1F9
:1010700000212046FFF70AFE054690B1032507E050
:101080006A460021204609F0BEFC05460028EFD044
:10109000E06C0AF077FF206A0AF074FF284605B07A
:1010A000F0BD1022014668460BF0BEFA236A5A785A
:1010B00032715B68B3603460EAE700BF2C0B00203C
:1010C0002C0F0020C8ED0000B8ED0000D6F40000A1
:1010D00013F500003AF500005FF5000001460148F5
:1010E000FFF7CABECC06002073B516461C4633B3C4
:1010F000436A5D686379012B15D101BB1F4B2268E0
:101100001B689A4298BF0025002009F0DBFA01A96C
:10111000C0B202F07DFDF0B1012501980AF032FF66
:10112000284602B070BD022B09D12368012B08D9D3
:10113000124A1268934202D8B1FA81F14909002596
:10114000E2E7FCD10029DFD00129F8D12179023969
:1011500018BF0121F3E729460198202332460AF0FF
:1011600012FF05460028D7D1002CD6D03568044898
:101170002D1A18BF4FF0FF35CFE700BF0000002049
:101180003DB8F3962DE9F04F074685B00C46014671
:101190000020164609F08DFB051E51DB3846E46D34
:1011A00009F094FB5FFA84F8691E08FB01014FF017
:1011B00000094FF0010A4FF0FF34CDB9B9F1010F2A
:1011C00009DD2149214B2248C91AC908890141F08A
:1011D00001010AF036FA631C06D07F2C25DC0134AD
:1011E00040F201133460B380284605B0BDE8F08FAB
:1011F00001230DF10F023846019109F06EFA002823
:1012000005F1FF3B1EDB0128019909D1BAF1010F5D
:1012100001D009F10109A1EB08015D468246CCE746
:10122000B4F1FF3F08BF2C46F5E70223803C737101
:10123000631004F001040133013433603471D3E7E7
:101240000725D1E70125CFE7C8ED0000B8ED000084
:1012500066F5000038B5826A446DA2420ED0631C68
:1012600093420BD01C491D4B1D48C91AC90889015E
:1012700041F002010AF0E5F9002038BD802A28D9A2
:101280001549164B1748C91AC908890141F00201CE
:10129000F0E7416A056D01EBC30105EBC305496841
:1012A0006D688D4208D00C490C4B0F48C91AC9080B
:1012B000890141F00201DDE70133A342E9D19A42FD
:1012C00005D9426A02EBC3035B689942EBD1012066
:1012D000D3E700231946F0E7C8ED0000B8ED0000A1
:1012E00084F50000B7F50000E1F5000010B588B006
:1012F00001A9022009F0F8FA1B4C1C4B9DF80410C0
:101300001B4A0392E41AE408A401012944F00303F0
:1013100023D0184A1848032908BF024604929DF8B2
:10132000052005929DF8062006929DF80720079259
:1013300003A9124805220AF0BEF99DF80430012BDA
:1013400044F003010BD19DF80630032B07D10C4864
:101350000AF077F9022008B010BD0A4ADEE70A4811
:101360000AF06FF90020F6E7C8ED0000B8ED0000C4
:1013700008F600001CF6000016F6000025F6000036
:1013800061F6000020F600007BF6000070B506460E
:1013900018464B681446224A03F0FF23934288B054
:1013A0000D4638D10B68012B35D101A909F09CFA03
:1013B0001C4A1D4B9DF804109B1ADB081B4A039224
:1013C0009B01012943F0030327D0194A1948032937
:1013D00008BF024604929DF8052005929DF806205C
:1013E00006929DF8072007921348052203A90AF0E8
:1013F00062F99DF80430032B0DD12146304609F0E7
:1014000083FB204609F090FAA968204609F0A7FA64
:101410002046FFF7B5FB08B070BD084ADAE700BF09
:1014200000010004B8ED0000C8ED00008DF60000DA
:101430001CF6000016F6000025F6000020F600005D
:101440002DE9F04F436A0C465E688BB005460121DA
:10145000002333449342084601F10101F9D3744F4C
:101460003860204609F00FFB0397E8B1E86D09F0FA
:101470001BFAAB6A0022013B3244904201D9013B86
:10148000FAE7039A12689A420ED36A4B6A496B488C
:10149000C91AC908890141F002010AF0D2F80123F2
:1014A000E3710BB0BDE8F08F08A9022002F0B0FB99
:1014B00009A9052002F0ACFB0523099A214628461C
:1014C000FFF764FF6379012B08D1039BDFF870B14C
:1014D0001F68039B1B68A7B9012323600223DFF861
:1014E0006081637101270693039BDDF820901B68E0
:1014F000BB4247D248460AF045FD09980AF042FD32
:10150000CFE7226801339B1A9F4239D86B6ADDF816
:101510002080196853F8370003EBC703012A53F8FA
:10152000083CA0EB0109A3EB010A0FD1099B04932E
:101530004146284609F0E8FA41462246284609F085
:1015400018FB049B2846194609F0DEFA3246494644
:10155000404609F0D7FA534642464146CDE9009647
:101560002846FFF75DFC2146284609F099FA2368D2
:101570000133236020B1DBF800300133CBF80030B9
:10158000013FA6E72368BB4250D86A6ADDF824A071
:1015900052F837100591FB0011680491083B296D42
:1015A000C8580968A0EB010B217901293CD1D15819
:1015B000049B3246C91A4846079109F0A3FA0799D5
:1015C00000915B464A46514601962846FFF728FCA3
:1015D0002146284609F064FA069B237120B1D8F809
:1015E00000300133C8F8003032465946504609F001
:1015F00089FADDE9042349469B1ACDE900B6524633
:101600002846FFF70DFC2146284609F049FA2368D1
:10161000013323604FF00103237138B1D8F8003053
:101620000133C8F8003001E00229DDD001375BE763
:1016300000000020B8ED0000C8ED00009DF600009D
:101640002C140020BFF36F8F72B6124B4FF0FF3295
:10165000C3F88020C3F88420C3F88820C3F88C2006
:10166000C3F89020C3F89420C3F89820C3F89C20B6
:10167000C3F88021C3F88421C3F88821C3F88C21E2
:10168000C3F89021C3F89421C3F89821C3F89C2192
:10169000704700BF00E100E0154B164901221A60B7
:1016A0004FF0FF33C1F84833C1F8083301F5C041AA
:1016B00004310A60C1F84433C1F8043301F59831AC
:1016C0000A600D4AC2F84833C2F80833A2F508325E
:1016D0000021C2F80015C2F8083302F51832C2F82A
:1016E0000015C2F808334FF08042C2F80833704743
:1016F00004B0004000B00040004002402DE9F0433B
:101700000546079810B91060BDE8F0830324B0FBCC
:10171000F4F404EB4407B84218BF0134B4F1804F2D
:1017200005D34FF0FF3313606FF00B00ECE7A4001C
:1017300001348C4200D80DB91460F5E7DFF8BCE045
:101740002E460024BC4231469C4606F1040603F1B5
:1017500003032CD3844225D29CF80060274F013428
:10176000844238BF9CF801304FEAA60C28BF002302
:1017700017F80CC081F800C0844207EB131C3CBF73
:101780009B0003F03C034FEA061606F0300638BF14
:10179000FB5C1CF806604E7028BF3D238B703D2318
:1017A000CB7004314D1B002015600870ACE713F8B6
:1017B00003CC13F8021C13F8018C4FEAAC094FEA72
:1017C0000C1C1EF8099006F8049C0CF0300C0EEB73
:1017D0001119890019F80CC006F803CC01F03C017E
:1017E0000EEB981C08F03F081CF8011006F8021CCC
:1017F0001EF8081006F8011C0334A3E755F8000092
:101800002DE9F0434FF0000C079EDFF828810746D2
:1018100065466046B5420AD32E4604E00135AE4225
:101820000EF1010E05D1A8BB1060BDE8F0834FF0AA
:10183000000E5C5D202CF1D0AE42F4D0A6EB050981
:10184000B9F1010F15D90D2C13D103EB050999F846
:101850000190B9F10A0F1BD0BEF1000F06D13D2C4B
:1018600009D10CF1010CBCF1020F07D96FF0150082
:10187000DBE70A2CEFE714F0800FF7D118F80440EB
:101880007F2CF3D03F2C02D8BCF1000FEED10130F9
:101890000135BFE7062500F007046C4304F1070E8D
:1018A000C4086C43A4EB0C0404EBDE0487B18C4247
:1018B0000ED80025DFF87CE0DFF87C801E44394636
:1018C000032428469E4207D1C91B11600020ACE7C3
:1018D00014606FF00B00A8E713F8019BA9F10A0C44
:1018E0005FFA8CFCBCF1160F04D828FA0CFC1CF033
:1018F000010FE7D11EF809C00130BCF1400F08BF4D
:10190000013C0CF03F0C04284CEA8515DAD17CB17F
:10191000280C012C087002D101310020D2E7022CE2
:101920004FEA1520487016BF8D7002310331F4E77D
:101930002046C7E7D5F70000090040002DE9F04F29
:1019400087B00F461946109B9DF844B09DF848A0FB
:101950001F4C06461425104698464FEAE37950EA94
:10196000010319D1142D139C14BF013530232C44CD
:1019700008BF8DF81430152C1BD0153C002C1ADC38
:101980001DF8050039460135B047152DF8D1002C5A
:1019900019DC07B0BDE8F08F42464B46FEF7B0FBBE
:1019A000A25C0DF8052084460B4660461946013DB1
:1019B000D5E70024E4E7BBF1000FE1D039465046FB
:1019C000B047013CDAE739465046B047013CDEE714
:1019D00095F80000014B1860704700BF040000201C
:1019E0002DE9F04F002687B005468B461C4602F1D4
:1019F000FF3A4FF0FF3837464FF0000907E0B9F1E2
:101A0000000F0BD1252800F00A815946A8471AF883
:101A1000010F0028F3D107B0BDE8F08F7A280AD86B
:101A2000622810D8302851D044D8252800F0F580FD
:101A30002D2800F0FB8059462520A8479AF8000081
:101A40005946A847D8E7A0F16303172BF3D801A2A2
:101A500052F823F0131C0000151B0000371A000079
:101A6000371A0000371A0000F71A0000151B000093
:101A7000371A0000371A0000F71A0000371A000062
:101A8000371A0000371A00008F1B0000371A0000B9
:101A9000371A0000DB1B0000371A0000151B00007E
:101AA000371A0000371A0000BD1A0000371A00006C
:101AB000F71A0000392815D95828BCD19AF80030F7
:101AC000702B6ED154F8042B002375E0B8F1000F91
:101AD0000BDA002F00F0AC80A0F13008002F08BF17
:101AE000022794E7B8F1000FF6DB0A2303FB08088E
:101AF000A8F13008F2E7682803D1682E06D14826FD
:101B000085E76C2802D16C2E00F09480002E92D1D3
:101B100006467CE77A2E06D1A14659F8042BD31746
:101B2000752823D10FE06C2EF6D04C2E05D107344A
:101B300024F00709F9E80223F2E77528226804F186
:101B4000040912D10023F81E18BF0120012F0CBF79
:101B50003024202401900A20CDE902480090594603
:101B60002846FFF7EBFE4C4646E7D317002A73F1F1
:101B70000001E8DA59462D20CDE90423A847DDE924
:101B80000423524263EB430308F1FF38DBE7594675
:101B90003020A84759467820A8474FF00808012769
:101BA0008CE76C2E8ED04C2E8CD1E31D23F00703D6
:101BB0001C465B6854F8082BF81E18BF0120012F43
:101BC0000CBF30212021CDE9021810210190009195
:101BD00028465946FFF7B2FE0EE754F8043B9946F3
:101BE0004A4619F8010B78B9032F25D1A2EB030956
:101BF000A8EB0909B9F1000F7FF7FEAE5946202086
:101C0000A84709F1FF39F5E759460493A847049B13
:101C1000E6E754F8040B594613E7594611E74E46D8
:101C20004F464FF0FF384FF00109F0E60327EEE68C
:101C30000127ECE64C26EAE68146E8E630B585B0B9
:101C4000CDE90101044600250548039501A9FFF7E8
:101C5000C7FEDDE902309842B8BF255405B030BD5B
:101C600045AD00002DE9F84FB0F8189019F00808BC
:101C7000044693460DD001290CBF49F0100949F0E4
:101C80002009A0F818908BF31188BFF36F8FBDE87F
:101C9000F88F09F00709022907D1204609F07FF8DB
:101CA0000028F0D00128238B50D16769218B002FA9
:101CB00015DA256821F00701C4E9008841F0010127
:101CC00021830026218B01F0070ACA4502D0A368B0
:101CD000002B5CD10DB9002E74D0002358E001F028
:101CE00007035A1F012A20D821F00701062B256877
:101CF00089B2C4E900880CD1002D2B4638BF0023DF
:101D00002BB1628B1B6801326283002BF8D141F04A
:101D100002012183204609F042F806460028D1D06E
:101D2000238B43F020032383CBE7042B0CD121F03A
:101D3000070189B22183204609F031F805460028C1
:101D4000BFD041F0200121830025BAE7032809D143
:101D5000226923F00703166843F006032383002556
:101D60002F46AFE7042806D1226923F007035668FF
:101D700043F00403F2E7052806D1226923F00703A4
:101D8000966843F00503E9E700252E46E8E70123BE
:101D900041F0080121838BF31188BFF36F8F03BBE0
:101DA000002D33D116B121492046B0474FF0200312
:101DB000EFF3118B83F31188BFF36F8F238B23F025
:101DC00008032383238BDA0628D523F0100323830B
:101DD0000121B4F8189009F0070900297FF45BAFDE
:101DE00051E7A1680029DBD00B68D1F804B0002BC3
:101DF00038BF0023994652463B462046D847B9F1A2
:101E0000000FCDD0D9F800304946EEE729463B46D1
:101E1000524620462D6808F0DEFFC1E713F020018E
:101E20001EBF23F0200323830221D2E703AE00006C
:101E300008B500F0CDF9094809F0C0FB04232822B9
:101E4000074908480CF040FC074B084A1A604FF459
:101E50000040BDE8084000F003BC00BF3C14002077
:101E6000D09D00204414002008000020FBB5000095
:101E7000F8B50F4BBFF35B8F002553E8007F43E8B5
:101E80000052002AF9D1BFF35B8F0A4C0A4E361B71
:101E90003611B54200DBF8BD63685B792BB123686E
:101EA000DB6813B139462046984701351034F0E716
:101EB0003414002018EE000028EE0000364B1B788A
:101EC0002DE9F041044603B960B34FF02003EFF36E
:101ED000118683F31188BFF36F8F304809F07EFBC2
:101EE000054686F31188BFF36F8F78B1BFF35B8F20
:101EF0002B4B53E8002F013A43E800210029F8D189
:101F0000BFF35B8F8CB1284609F082FC24B9254BC6
:101F10001B680BB1FFF7ACFF204809F05DFB041E06
:101F200018BF01242046BDE8F0811F4B1B789BB1F0
:101F30001E4E1F4FBF1B3F114FF00008B845E2DA9D
:101F400073685B7923B1336829461B68304698472C
:101F500008F101081036F1E72B7ADB07E8D409F025
:101F60006AFC0646284609F031FC0146304609F075
:101F700048FB4FF001080646002ED9D0B6FA86F786
:101F8000C7F11F073946284608FA07F709F021FC70
:101F900026EA0706F0E700BFC75000203C140020E7
:101FA0003014002034140020C850002018EE000027
:101FB00028EE0000284B73B51B6841810446984702
:101FC000264DE060BFF35B8F55E8003F013345E8E5
:101FD0000032002AF8D1BFF35B8F4FF02003EFF3FC
:101FE000118683F31188BFF36F8F1D48214609F0D6
:101FF000E9FA86F31188BFF36F8F1A4B1B7883B110
:102000004FF02003EFF3118483F31188BFF36F8F38
:102010000020FFF753FF84F31188BFF36F8F02B0E6
:1020200070BD114A2B681268002AF8D0012B07D125
:10203000002200230D48CDE9002308F02FF9EEE738
:102040000A2BECD109480CF04CFD094802B0BDE860
:10205000704007F079BE00BF080000203014002057
:102060003C140020C85000206014002068040020A8
:10207000E0020020064BBFF35B8F53E8002F0132D4
:1020800043E800210029F8D1BFF35B8F704700BF00
:1020900034140020044A054B9B1AB1EBD30F34BF14
:1020A00052F8310000207047B8ED000018EE000033
:1020B000094B4268C31A1B11013310B513714368F1
:1020C000064C196001225A71227812B9044807F0AF
:1020D0003BFE0123237010BD18EE0000C750002006
:1020E000E002002070B5114BBFF35B8F53E8005F37
:1020F0006A1C43E800210029F8D1BFF35B8F2DB99A
:102100000B4C0C4E361B3611B54200DB70BD237BE9
:1021100043B123685B6903B198470422002120463C
:10212000FFF7C6FF01351034EEE700BF381400207A
:1021300018EE000028EE0000F8B50E4F3D7875B996
:102140000D4C0E4EFFF7CEFF361B3611B54207DBA6
:102150000020FFF7B3FE0028FAD101233B70F8BD41
:1021600063685B791BB1236820461B69984701357A
:102170001034EBE7C850002018EE000028EE0000F5
:1021800048B1054B984205D3A03398422CBF00209C
:102190000120704700207047D09D002007B504380B
:1021A0000190BFF35B8F50E8003F5A1E40E80021CA
:1021B0000029F8D1BFF35B8F012B03D1034801A99C
:1021C00007F044F903B05DF804FB00BF441400209D
:1021D0002023024902481A460CF076BA709E00206D
:1021E0006414002037B50023094D01930120FFF747
:1021F00065FE0446FFF73EFF0022002301A92846A2
:1022000007F0F2F808B1002CF0D1019803B030BD0E
:102210006414002007B5002301930748002200231F
:1022200001A907F0E1F810B1FFF7DCFF0190019878
:1022300003B05DF804FB00BF64140020F0B5037A1E
:10224000457A85B02D090190D8071CD4DDB1002452
:1022500026460198314609F0BCFA0746FFF790FF81
:1022600070B134B9019B2946186909F0CAF90446CE
:1022700048B124FA06F3D90702D53846FFF78EFF96
:102280000136AE42E5D3019B1A7A920704D55B6909
:10229000084C0393039B2BB9064801A907F0D6F815
:1022A00005B0F0BD1D6803A9204607F0CFF80395DF
:1022B000F0E700BF641400200EB403B503AB014681
:1022C00053F8042B04480193FFF78AFB002002B067
:1022D0005DF804EB03B0704785BC00002DE9F04FBA
:1022E00085B011F0020490469DF8387006461A46F3
:1022F00001F0010901F0080507D011F0440F37D1B2
:102300003249FFF7D9FF01460C46B9F1000F0AD058
:102310002F4B304953F827202F4B3046002A08BF57
:102320001A46FFF7C9FF3DB12C4B2D4953F8272022
:102330003046FFF7C1FF0546B8F1000F43D0012337
:1023400003FA07F7274B17F0100F274F18BF1F4648
:10235000BDF840109DF83C00FFF79CFE3946024650
:102360003046FFF7A9FF2844204405B0BDE8F08FB0
:102370001E4B19680029C7D01D4B4FF4616E1B68B6
:10238000B2FBF3F34FF47A7CB3FBF1F4B4FBFEF24F
:102390000EFB124E01FB14340CFB04F44FF03C0A0C
:1023A000B4FBF1FB01FB1B440CFB04F4BEFBFAF392
:1023B000B4FBF1F1CDE901B10AFB13E100910D4944
:1023C000FFF77AFF9FE7084FC2E700BFB4F80000AD
:1023D00070EE000052F40000A6F8000084EE000049
:1023E000D9F80000B0F80000ABF80000801400201D
:1023F00084140020BDF8000038B50C46E1070546FE
:1024000003D5084A0849FFF757FFE20608D4A30698
:1024100028464CBF05490649BDE83840FFF74CBF88
:1024200038BD00BFA6F8000052F40000E0F800003C
:10243000DFF800002DE9F0471D46089B1746DA0635
:1024400004460E4605D499064CBF2A492A49FFF78F
:1024500033FFDFF8AC904FF00008A8452ADBDFF827
:10246000A480DFF8A490DFF898A00025BD422FD209
:10247000725D49462046FFF71FFF0135102D20D120
:102480001E49DFF87C80DFF884902046FFF714FFB8
:102490000025AF4228D9725DA2F120035F2B28BF2F
:1024A0002E2249462046FFF707FF0135102D14D193
:1024B000BDE8F08749462046FFF7FEFE08F1010817
:1024C000CBE76A07D2D151462046FFF7F5FECDE7AC
:1024D00041462046FFF7F0FECFE76B07D9D14146D2
:1024E0002046FFF7E9FED4E741462046FFF7E4FE29
:1024F000DBE700BFE0F80000DFF80000ECF80000C8
:10250000EAF80000E8F80000E2F80000EEF8000049
:102510002DE9F0478B7A13F0070817468AB00A7A3C
:1025200005460E4621D04989C3F3C203C1F3891180
:10253000D243CDE900830291F36802F001023946EB
:10254000FFF7CCFE8146347AE44314F001040ED048
:102550002946304609F02CFAB8F1000F2BD042463C
:1025600039462846FFF748FF25E0C146EBE7B8F1BA
:10257000000F26D12746EB68069306AA3B46A968BA
:10258000304609F001FA069A6B681A603AB1AB68F6
:10259000134413F8014CA4F10A035C425C41284641
:1025A00009F063FB069B1F44002BE4D11CB11449C6
:1025B0002846FFF781FE284609F057FB0AB0BDE820
:1025C000F087304609F037F90E4902462846FFF7F2
:1025D00073FE4FF0100A05AA234606A93046CDF82F
:1025E00014A009F0D1F9059A002AB8D04B460097FB
:1025F00006A92846FFF71EFF059B1C44EBE700BF1A
:10260000F700010052F4000073B542F20F738B42E1
:1026100028BF0B4605680F4A04460521684608F0A6
:10262000B1FB63680C495B6806460B22284609F03B
:10263000B2F963683246694628465B6809F0ABF92F
:10264000636806495B681B22284609F0A4F902B0BA
:1026500070BD00BF58FE00002DF9000011F9000008
:10266000084A10B50123084C13600021A04204D889
:1026700001B11360054B186010BD40085B000121DB
:10268000F4E700BF8414002040420F0080140020B3
:10269000014B01221A707047D9500020024B0348A9
:1026A00001221A7009F0E1BADA500020B0EE000001
:1026B0000148FFF7A9BF00BFB0EE000010B5084603
:1026C0000C4609F076F8054821460F22FFF720FF57
:1026D0002046BDE8104009F09BB800BFB0EE0000F6
:1026E000054B1B781BB141F288300CF088B9A4204F
:1026F000002107F003BB00BFDA5000202DE9F84F9E
:10270000DFF89090DFF890B007460E460424CA46E2
:1027100099F8003033B94FF0FF324FF0FF3358468D
:1027200006F0BEFE32463946002002F0FFFD9AF860
:102730000030804613B9584606F02AFF144DB8F110
:10274000000F18D001232B709AF8003033B93046AF
:10275000BDE8F88F5CB92C704FF0FF34002002F018
:1027600065FE0028F3D02B78002BF3D1EFE7013C76
:10277000FFF7B6FFF2E72B7813B1013C04D12C70C0
:102780002B78002BC4D1E2E7FFF7AAFFF8E700BFE0
:10279000D9500020DA50002094020020F0B5104BF0
:1027A000104C114DE41AA4106C43104DD5F824C000
:1027B0000025A54202D16FF02200F0BD5F68674599
:1027C0000AD31E6946B197F802E00779BE4503D1E6
:1027D0003346BDE8F040184701352433E9E700BF30
:1027E000C0030020E4030020398EE3389C1400204D
:1027F0002DE9F041124B134C134DE41AA4106C4315
:10280000124DD5F824C00025A54203D16FF0220057
:10281000BDE8F0815E6866450ED39F6967B196F8A2
:10282000028090F804E0F04503D13B46BDE8F0415A
:1028300018477679012EF8D001352433E4E700BF3C
:10284000C0030020E4030020398EE3389C140020EC
:102850002DE9F8430F4C104B17461B1B0F4A9B10DA
:1028600005460E4602FB03F94FF00008C14502D1B0
:102870006FF022000BE063691BB908F101082434F2
:10288000F4E73A463146284698470028F5D1BDE896
:10289000F88300BFC0030020E4030020398EE33832
:1028A00007B583788DF800300379427943EA022333
:1028B000ADF80230C378684603F003038DF80430A6
:1028C00002F038F910F1450F9DF8001021D11F4A90
:1028D0001F4B2048D21AD208920142F0020208F09F
:1028E000BDFE9DF8000002F0C5F910F1450F20D1A2
:1028F000164A174B9DF800101748D21AD2089201B9
:1029000042F0020208F0AAFE144B012083F8B9003D
:102910000CE00028E5D00D4A0D4B1148D21AD20820
:10292000920142F0010208F099FE002003B05DF828
:1029300004FB0028E8D0054A054B9DF80010094823
:10294000D21AD208920142F00102ECE700EE000038
:10295000B8ED000049F9000090F900009C14002037
:102960006CF90000B0F900002DE9F14F254B264C21
:10297000264F1B1B9B105F43031F012B05460E4672
:1029800025D8234B93F8B920984602B300F0D0FE27
:10299000042D1CD14FF000094F4515D0D4F820B0BC
:1029A0004FF0000A227F5FFA8AF39A4203D809F1B6
:1029B00001092434F0E70BEBC3030AF1010A18798B
:1029C00002F07CF90028EDDA002388F8B9300E4CCB
:1029D0004FF00008B84508D10D4B1B6A7BB131465A
:1029E000284601B0BDE8F04F1847E3681BB13246F6
:1029F00029462046984708F101082434EAE701B047
:102A0000BDE8F08FE4030020C0030020398EE338D6
:102A10009C1400202DE9F04FAF4CA36987B0064607
:102A20000D46174663B9337803F01F03012B00F0FE
:102A30008680022B00F0F28043B16FF0150002E0B7
:102A400098470028EFD107B0BDE8F08F7278708802
:102A50003B68092AF1D801A151F822F0852A00002B
:102A60003B2A00003B2A00003B2A00003B2A0000D2
:102A7000912A00009B2A00003B2A0000C92A00007E
:102A8000D32A00000020012258701A70022371E03E
:102A9000C0B202F005F80020D5E7020A131F012B8F
:102AA000CBD9072AC9D8636AC0B200211C78002C90
:102AB000C3D05E78964203D1884200F04081013154
:102AC0002344F3E71B783FE194F8BA201A700123FE
:102AD0003AE1C7B28DF8177077B14FF0FF08656A19
:102AE0000026C1462B7853B9E3691BB10DF11701DC
:102AF00003209847002EA0D084F8BA70CBE76B78FB
:102B0000042B0DD0052B0ED0022B06D195F8058095
:102B10009DF81730434508BF01262B781D44E1E797
:102B200095F80390F9E79DF817304345F5D1B9F1D1
:102B3000000FF2D12846FFF7B3FE0646EDE794F802
:102B4000BA30002B3FF479AFD4F824B096F8048063
:102B50005A46107800283FF470AF5178022904D10A
:102B600092F804C0C44500F2F1800244F1E700206D
:102B7000107001232B6066E7B378584A584E0193D2
:102B8000B61AF608B301FF27029343F00103BA46D1
:102B90004FF0000903939BF800203AB9E36913B1A1
:102BA000494607209847002028604CE79BF8012001
:102BB000042A05D0052A0ED09BF800209344EAE7AA
:102BC0009BF802709BF803A0B845F5D1019B5345D3
:102BD00008BFD946F0E7B845EED1019B534519D05F
:102BE0009BF80260304600F07BFD304602F066F84C
:102BF00010F1450F07D1029B3A4843F002023146DB
:102C000008F02CFDD8E70028D6D0BDF80C203648B7
:102C10003146F5E75846FFF743FECDE73079D7F860
:102C200000808DF8170030F080071ED02F4B304AFF
:102C30003049D21A92104A434FF0000C62453FF4DB
:102C4000FCAE196A93F81C904FF0000E04395FFA3D
:102C50008EFACA4503D30CF1010C2433EEE70EF1D2
:102C6000010E11F83EA08245F1D17378012B11D0ED
:102C7000032B43D0002B7FF4E0AE27B194F8BA3099
:102C8000002B3FF4DAAE414601F0DAFF002088F86D
:102C90000100FBE67388002B7FF4CFAE27B194F8D8
:102CA000BA30002B3FF4C9AE0C4B0D4AD21AD208F1
:102CB0009201014642F003020F4808F0CFFC9DF854
:102CC000170001F09FFFE369002B3FF4E4AE0DF124
:102CD000170109209847DEE69C140020B8ED00009B
:102CE00000EE0000D1F90000F2F90000C00300205E
:102CF000E4030020398EE33814FA00007388002BB7
:102D00007FF49BAE27B194F8BA30002B3FF495AE18
:102D1000164B174AD21AD2089201014642F003021A
:102D2000144808F09BFC9DF8170001F035FFE3699B
:102D3000002B3FF4B0AE0DF117010820CAE7022ABC
:102D40003B607FF4BFAE5B882B60A4E670783A6886
:102D50000A283FF40CAF0B283FF40EAF00287FF495
:102D60006CAE1070507029606DE600BFB8ED0000C9
:102D700000EE000029FA000008B509480378C3F303
:102D800041130A3350F823303BB100F1080200F13F
:102D900010019847C043C00F08BD1846FCE700BFAC
:102DA0009C14002010B5064C94F8B80030B101F026
:102DB00019FE0028A4BF002084F8B80010BD00BF91
:102DC0009C1400202DE9F84F124CDFF850B09846C3
:102DD000114BE41AE408A40105460E4617464FF0CD
:102DE000040944F0020443463A463146284601F0BD
:102DF00083FF10F10B0F824609D12246294658461F
:102E000008F02CFC06F02CFFB9F10109EBD150467B
:102E1000BDE8F88F00EE0000B8ED00003CFA0000BD
:102E200013B50D4C237D7BB9E268A168019201AB1B
:102E30008020FFF7C7FF0199A268E3680A445B1A84
:102E4000A260E36002B010BD00231A46194680203C
:102E5000237501F051FFF5E79C14002030B585B0D3
:102E600000220B4601920546002860D100293DD181
:102E700008220DEB020109F0A7F9002804DA8020EE
:102E800001F08AFE05B030BD2E4CBDF80E3002991F
:102E90002160802B03999DF80820616010D9D50925
:102EA0000ED12949294B2A48C91AC908890141F07C
:102EB000010108F0C6FB802001F06EFE2846DFE726
:102EC00024492361C4E90213002121750BB1D30900
:102ED000D8D0FFF751FF0028D1D0E28823699A4269
:102EE000D4BFE260E360FFF79BFFCBE7154CD4E96A
:102EF0000212002A01AB05DC024609F065F9002840
:102F0000C0DABCE709F060F90028D4DB0199A268B7
:102F1000E3680A445B1AA260E360002BB2D104F1BB
:102F20003803A360FFF728FF0028DCD1A7E780283B
:102F3000A8D1044BDA68002AD5D11B7D002BD2D151
:102F4000A0E700BF9C14002000EE0000B8ED0000D8
:102F500063FA0000D4140020054B064A9A62064A20
:102F6000DA62064A1A63064A58629A61002070477C
:102F70009C140020152A00009D2700005128000005
:102F8000F12700000C4B10B593F8B8408CB900F055
:102F9000F3F960B9094B0A490A48C91AC9088901F5
:102FA00041F0010108F04DFB4FF0FF3010BDFFF77D
:102FB000D3FF0020FAE700BF9C140020B8ED00000A
:102FC00000EE00007CFA00002DE9F7430446374D7F
:102FD00037484FF0FF324FF0FF3306F061FA95F8B3
:102FE000B860002E42D133482C62E86101F0D2FF74
:102FF00001F0A8FC041E3ADB00F0BCFB041E36DB2B
:1030000040236846ADF802308DF804608DF800600A
:1030100001F090FD041E2ADB802768468DF80070C1
:1030200001F088FD041E22DB2349304601F0A0FF99
:10303000041E1CDB2049384601F09AFF041E16DBF3
:103040001E4C1F4B1F4A1B1B9B1002FB03F9B14573
:1030500014D1002001F00EFE041E08DB802001F0D8
:1030600009FE041E03DB012385F8B8300024104854
:1030700006F08EFA204603B0BDE8F083D4F8208035
:103080000027237FFAB2934202D801362434DEE7C8
:1030900008EBC20358F83210187901F069FF0137C4
:1030A0000028EED04FF0FF34E1E700BF9C14002071
:1030B000BC020020692900005D2E0000C003002032
:1030C000E4030020398EE33830B51C4B89B003AAE5
:1030D00003F1100518685968144603C40833AB425D
:1030E0002246F7D11B7823700822002101A809F09D
:1030F0009BFA12220021124809F096FA082101A831
:1031000009F071F8002816DD0D4901AA002012F817
:10311000013B08AC04EB131403F00F0314F8144C38
:103120000C7008AC2344013013F8143C4B70082891
:1031300001F10201EBD1024809B030BDACFA000048
:10314000DB5000202DE9F04F7F4A804B804D8149B4
:103150009B1A814A87B09B10002753436D1A04467F
:103160000193ED084FF0011BB946B846BA462378E3
:103170004BB97A4AA01C904200F0E380FFF7E2FFCF
:1031800007B0BDE8F08F6378052B05D8DFE803F0C2
:10319000950403950730A24623781C44E7E7E378BB
:1031A000002BF9D1A378C3B9674A10460199994217
:1031B00007D1AA016A4842F00102214608F04EFAFE
:1031C0001FE051688C4202F124020BD14FF0240819
:1031D00008FB0308D8F8083033B909F101095FFA90
:1031E00089F9D9E70133E1E7494620469847F4E7F2
:1031F000B8F1000F5ED1A9015A4841F0010108F071
:1032000020FA4FF0FF30BBE7D8F82020A67802EB79
:10321000C3021079864209D0013398F81C209342EA
:10322000F2DBA901504841F00101E8E7012694F8DA
:1032300003C094F805E00CF0030C8DF814C094F86A
:1032400004C04CEA0E2CADF812C094F902C0BCF1D7
:10325000000FF0B225DA06F1100C01FA0CFC1CEAA2
:103260000B0F23D160F07F008DF8100004A8CDE98A
:10327000023201F025FCDDE902320121B0B99DF8EE
:103280001030A37013F0800F137118BF10360B4667
:1032900015BFB34003FA06F64BEA030B4BEA060BE5
:1032A0007AE701FA06FC1CEA0B0FDDD00136102E7E
:1032B000BDD1B1E700230121AFE7032F25D1FFF7EF
:1032C00003FF064678B109F061F9029058B127482A
:1032D00009F05CF9029A824212D0A901244841F017
:1032E000010108F0AEF923786FF00201E218091B22
:1032F00004EB53030020D14211D50137FFB24BE755
:103300003146A01C09F065F9EDE7002FEBD1BAF1C9
:10331000000F0BD1A901174841F001016FE702F836
:10332000010C13F8016902F8026DE4E7A4EB0A034B
:103330008AF80230C3F307238AF803308AF804902E
:10334000DBE718461CE700BFC0030020E4030020B1
:10335000F8ED0000B8ED0000398EE338BF0300201F
:1033600083FB0000BDFA0000FEFA0000ACFA00008A
:103370001BFB000066FB000008B50948FFF7E2FEF2
:1033800058B1084B08490948C91AC908890141F0D0
:10339000010108F056F9002008BD0148FCE700BF14
:1033A00000030020B8ED0000F8ED0000A3FB0000D2
:1033B000014600F10803BFF35B8F53E8002F42F092
:1033C000010043E8000CBCF1000FF6D1BFF35B8FA6
:1033D000D30702D401480BF009BA7047A0040020BB
:1033E0002DE9F34150F8283C10F82C5C10330446CA
:1033F00010D1C36850F8202C990747D5FAB913F0BB
:10340000040304D11A4619462846FFF7DBFC0023C3
:1034100044F8283C54F8283C10330DD054F8186C6C
:1034200056B154F81C7C54F8148C0BF0E2FA0028C6
:1034300058D02046FFF7BCFF02B0BDE8F08150F83D
:10344000241C01AB2846FFF7BDFC014668B12D4A9C
:103450002D4B2E489B1ADB089B0143F001032A46A3
:1034600008F010F96FF01503D2E7019A54F8243CE4
:10347000134444F8243C54F8203C9B1A44F8203C64
:1034800054F81C3C134444F81C3CC3E750F8241C7B
:1034900001AB284601F0BCFC01460028D7D1019EB3
:1034A00054F8243C334444F8243C54F8203C9B1BFF
:1034B00044F8203C54F81C3C334444F81C3C002E97
:1034C000A5D0284601F06CFDB6FBF0F303FB1060BD
:1034D00000289CD154F8203C002B98D0284601F0BD
:1034E000F3FC97E744F8180CA4F1100006F02CFC4C
:1034F00054F8283C48339FD0424639462846B047C6
:103500009AE700BFB8ED000010EE0000D1FB00000C
:103510000A4A30B500233C2404FB03F18D5C85424C
:1035200007D10A44506810F1100F14BF0020012089
:1035300030BD0133042BEFD10020F9E758150020EE
:1035400073B51D4C06460D4600233C2202FB03F0DA
:10355000015DB1421CD104446B1E012B16D8E4B9A5
:10356000012D13D101AB01220DF10301304601F011
:103570004FFC019B002BF5D11049114B1148C91A82
:10358000C908890141F0010108F05BF802B070BD83
:103590000133042BDAD10024DEE70BF02AFA0346CC
:1035A00004F12C000BB1012D02D1FFF719FFEDE75B
:1035B000FFF7FEFEEAE700BF5815002010EE0000FE
:1035C000B8ED0000EEFB00002DE9F74F05469046F0
:1035D00099464FF02003EFF3118283F31188BFF374
:1035E0006F8FDFF8F8A0009200243C27019107FBC1
:1035F00004F600220023504606F0C6FB0199F0B9FC
:10360000314F07EB060BDBF8044014F1100F28D103
:103610002E4B2F4A2F48D21AD208920142F00102B3
:10362000294608F01BF8504606F08EFB009B83F3FA
:103630001188BFF36F8F204603B0BDE8F08F0134CF
:10364000042C0AF13C0AD1D1204B21492248C91A45
:10365000C908890141F0010107F0F3FF6FF00B0485
:10366000E4E70C9ACBF814200D9ACBF818206FF0F1
:103670000F02CBF81000CBE90218BD55CBF83890FB
:10368000CBF80420284601F08BFC68B1284601F0F5
:1036900087FCB8FBF0F202FB108028B1DBF8382081
:1036A00042F00402CBF8382019F0020F06D006F1E0
:1036B0002C003844FFF77CFE0024B7E7284601F0D1
:1036C00003FC0446B2E700BF58150020B8ED000027
:1036D00010EE000008FC000031FC00007415002012
:1036E00070B54FF02003EFF3118483F31188BFF31B
:1036F0006F8F0E4900223C2505FB02F35E5C86427B
:103700000BD1CA18506810300AD16FF047002C3323
:103710005060C818FFF74CFE02E00132042AEBD1DA
:1037200084F31188BFF36F8F70BD00BF5815002060
:10373000F8B50F4C00256FF047074FF02003EFF36B
:10374000118683F31188BFF36F8F6368103304D140
:1037500004F12C006760FFF72BFE86F31188BFF39E
:103760006F8F0135042D04F13C04E6D1F8BD00BF94
:1037700058150020F8B50025094C0A4F2E46C4E91B
:103780000B676663012204F11C00114601350BF042
:1037900024F9042D04F13C04F1D10020F8BD00BF50
:1037A00058150020E13300007FB5436E5B681B6A4B
:1037B0001E7D05463046FFF7ABFED0B9686D4FF46D
:1037C000806203A907F0A1FE044690B18306A5F12B
:1037D000240308BF00F1FF340193074B03990093C2
:1037E000224602233046FFF7EFFE686D214607F0C0
:1037F000B0FE04B070BD00BFAFBE000070B504469F
:103800000E4601791648154608F066FA68B9154B58
:10381000154A1648A188D21AD208920142F0020233
:1038200007F01CFF6FF0120070BD6378212B0ED0E3
:10383000222B08D0202B0FD1296807220C3808F042
:10384000C8FE0020F0E7638800F8053CF9E70C3873
:10385000072328603360F4E76FF01500E4E700BF4A
:1038600048160020B8ED0000F0ED000059FC000003
:1038700010B5014604460A4808F03FFA60B9094A03
:10388000094B0A48D21AD2089201214642F002029C
:10389000BDE8104007F0E2BE012300F8033C10BD74
:1038A00048160020F0ED0000B8ED000080FC00009C
:1038B00030B54268C568104C85B042F2A1004FF4A3
:1038C0000033CDE90103002385F88530106AADF897
:1038D0000C1000790A2201A9FFF774FA95F88530D7
:1038E00013B1002005B030BD01200BF088F8013C79
:1038F000F4D16FF00400F5E7A186010010B5C468AB
:103900000023C4F88C300E4BC4F88800596804F1C9
:103910008C0291B9C3E900224FF0FF32002104F17B
:1039200008000BF05AF8074B0020C4E90730064B9B
:10393000A061C4E90A30606210BD0A605A60EBE71A
:103940004816002043BD0000A9370000014600F1E1
:103950000803BFF35B8F53E8002F42F0010043E8F8
:10396000000CBCF1000FF6D1BFF35B8FD30702D47C
:1039700001480AF03BBF7047A004002070B5C6683C
:1039800096F88630154613B196F8873063B1134A1E
:10399000134B14489B1ADB089B0143F00202294693
:1039A00007F05CFE002070BDB06F86F8303007F085
:1039B0008DFDA84204460AD2084A094B9B1ADB082F
:1039C0009B01291A43F00202074807F047FE06F15F
:1039D0002400FFF7BBFF2046E5E700BFB8ED00007D
:1039E000F0ED0000A6FC0000D8FC0000F7B50D1EAD
:1039F0000646144602F1340711DD606F2A46394647
:103A000007F064FD85420AD9104A114BD21AD20838
:103A10009201291A42F001020E4807F01FFE01230D
:103A200084F83130236833B194F833301BB104F19A
:103A30001800FFF78BFF084B0093019401234022ED
:103A400039463046FFF7C0FD03B0F0BDF0ED000091
:103A5000B8ED0000D8FC0000ED39000010B50446B8
:103A6000083006F071F90C4B002118689A889B7990
:103A7000E067A4F88020A4F88610218684F88230BC
:103A800084F8841084F8831004F134004022BDE8E7
:103A9000104008F0C9BD00BF30EE0000F8B5064682
:103AA0000D460146394808F008F9044660B9384B1C
:103AB000384A3948D21AD2089201314642F00202FD
:103AC000BDE8F84007F0CABD0646691E56F88839B9
:103AD0005F6805291BD8DFE801F0251A031B2A3887
:103AE0002B4B2C492D48C91AC908890141F0030103
:103AF00007F0A7FD14F8021C21B93B6A3246187B77
:103B0000FFF774FF012304F8023C04F8583CF8BDA9
:103B100020491F4B2248C91AC908890141F00301F5
:103B200007F08FFD3046BDE8F840FFF797BF184B10
:103B300018491C48C91AC908890141F0030107F056
:103B400080FD012304F8013CE1E7114B114D1648BB
:103B5000ED1AED08AD0145F00305294607F071FDAA
:103B600014F8013C002BD2D02946104807F069FD1B
:103B700014F8023C002104F8011C002BC7D03B6A5A
:103B80003246187BBDE8F840FFF730BF48160020EA
:103B9000B8ED0000F0ED0000F9FC00001AFD000097
:103BA0002CFD000040FD000051FD000060FD000004
:103BB00010B5084C08494FF0FF334FF4806220469F
:103BC00006F0C6F9054904F110000AF01AFF0020BA
:103BD00010BD00BFA00400209064002083FD000001
:103BE000094B30B51D68094B02461C6800239D42F5
:103BF00001DC002030BD190104EB0310615C91422F
:103C0000F8D00133F3E700BF74EF0000EC000020B0
:103C1000084B1B6810B50C462BB1FFF7E1FF28B12C
:103C20002060002010BD6FF00C00FBE76FF001007A
:103C3000F8E700BFEC00002030B589B00C4615460F
:103C40000190FFF7CDFFB8B1436802938368226803
:103C5000C068CDE903350023CDE90623059305F0BF
:103C60009BFA60B1074901AA08F03DFE079808B920
:103C7000059B236009B030BD6FF01500FAE76FF0C7
:103C80001200F7E749BF000008B504464FF02002D4
:103C9000EFF3118382F31188BFF36F8F08F0DBFA23
:103CA000204602F01DFC034807F05FF802F0B0F96F
:103CB000FCE700BF8CFD000010B5044C2046FDF76A
:103CC00089FE204602F0EEFB002010BDD13C000032
:103CD0002DE9F341DFF86080164E8DF807000446A9
:103CE00003254FF0FF334FF0FF32404605F0D8FB7D
:103CF00001220DF10701002001F064FB0746404658
:103D000005F046FC2FB101233370204602B0BDE818
:103D1000F0813378002BF8D0013D08D00AF069FE1D
:103D20000028DED10021422005F0E8FFD9E73570F8
:103D3000EBE700BFED5800209402002070B5044668
:103D40000D48231A9A100D4B5343DBB20C255D43EB
:103D500005F140030E461844402108F092F9011E77
:103D600004DB074B2B445B68984700212046334611
:103D7000BDE87040184700BF60160020B76DDBB685
:103D80008CEF00002DE9F0410F4C104D031B9B10F0
:103D90005D43EBB20C255D43074605F140000E463E
:103DA0002044402108F086F9011E08DB084B2C4412
:103DB000C4E90E36074B5B59BDE8F0411847384659
:103DC0003346BDE8F041184760160020B76DDBB6FA
:103DD00017C100008CEF0000002270B501210446DD
:103DE000104602F0C3F8002002F08EF80F4803F0EE
:103DF000F7F90F4B984215D103F002FAE6680D4926
:103E0000304607F01BF800280BDB01253564E46819
:103E1000084904F11C0007F011F8002801DBE564F3
:103E2000002070BD6FF00400FBE700BF6D3E000096
:103E30000000AD0BA4EF000001460C2309484B43E2
:103E400070B5C418D4E90E5600224033A26318445A
:103E500008F04EF92DB132462B460348BDE87040BC
:103E6000184770BD60160020AC01002010B1012879
:103E700004D07047034B1B6C5B0701D1FFF7DCBF1D
:103E8000704700BF6016002008B54FF02003EFF325
:103E9000118183F31188BFF36F8F124A136843F0C7
:103EA000020013F0010310600CD04FF08042D2F8F2
:103EB0000C34D2F80C2413F0010303D00A4808F0A4
:103EC00017F9012381F31188BFF36F8F23B1BDE888
:103ED00008400020FFF7B0BFBDE80840012003F014
:103EE0009DB900BFB0160020A0160020094BBFF3FB
:103EF0005B8F53E8002F22F0020143E800100028F6
:103F0000F7D1BFF35B8FD30702D4012003F0B8B918
:103F1000704700BFB016002010B588B00023012202
:103F2000CDE906320193094B04AC01AACDE9044462
:103F3000CDE9023408F015F9002805DB4FF4804282
:103F40000023204605F020FF08B010BD29C1000065
:103F5000024AC3B21C2003FB0020704760160020F9
:103F60002DE9F8433A49BFF35B8F0646012251E839
:103F7000003F41E800200028F9D1BFF35B8F33B93F
:103F8000344935484B60CB608A6006F06AFF731E87
:103F9000012B32D8012E07D14FF08043D3F81C34C7
:103FA00003F00303012B28D00AF023FD044618B9BF
:103FB0002A4B1B78002B44D14FF02003EFF31185DF
:103FC00083F31188BFF36F8F0124254FDFF89480AE
:103FD000DFF894904FF08042D2F81834D2F81824C9
:103FE000D2030CD503F00303012B01D0012E06D11F
:103FF0000CB385F31188BFF36F8FBDE8F883ACB1C4
:10400000284602F013F84FF08042D2F81835002B02
:10401000E0D139680029DDD03B603B680123C2F85C
:104020001835C8F88031C9F80030D3E700212120C5
:1040300005F064FEE7E74FF080430222C3F8042353
:10404000DBE74FF080430222C3F808230546BCE7B4
:10405000B4160020501600207C1600208A61002033
:104060000401004000E100E00800004000F07F0390
:10407000082B42B204D010F0780F01D00020704716
:10408000002A00F00F0300F0080006DA68B90948BA
:10409000242202FB03004030704740B903F10900BD
:1040A000044B242202FB0030F5E703487047034825
:1040B000704700BFB0280020102A0020542B002099
:1040C000014601480AF092BBF002002008B50448FE
:1040D00003F0D8F9034803F01DFA002008BD00BF23
:1040E0004B000100B0EF000010B51149BFF35B8F2A
:1040F00001F11803002253E8000F012803D143E81F
:104100000024002CF7D1BFF35B8F0CBF01201046B9
:104110000CD14C690431204606F011FF10F1450F17
:1041200004D12046BDE8104006F0E4BE10BD00BF3B
:10413000B02800200949BFF35B8F51E8003F43F0EE
:10414000010241E800200028F7D1BFF35B8FDB07B5
:1041500003D4034808390AF049BB7047D828002027
:104160003005002010B5064C00220023204605F043
:1041700055FA18B104300AF0D6FCF5E710BD00BFBF
:10418000F0020020F0B585B00026002702ADCDE991
:1041900000671D48182229460AF079FA00282BDA10
:1041A0001A4B1B4C1B48E41AE408A40144F0010418
:1041B000214607F046FAFFF7D5FFCDE90067124820
:1041C000182229460AF063FA002807DA1248214625
:1041D00007F037FA0023184605B0F0BD029B95E8BA
:1041E00003001A1D82E8030004221A751846FFF71F
:1041F00067FFFFF79FFFEDE795E80300029B1A1D9D
:1042000082E80300E7E700BFF4000020B8ED0000FB
:1042100008EE0000D5FD0000F3FD0000817870B5C8
:1042200006460846FFF722FF0B06F478054622D51E
:104230007CB1032C53D02A4A2A4B2B489B1ADB080B
:104240009B010A4643F001032146BDE8704007F098
:1042500019BAFFF797FF0346002840D0012285F8DE
:104260002240027503220274DD60FFF729FFBDE8DA
:104270007040FFF75FBF54B1012CDCD1FFF782FF24
:10428000034660B385F8214004750474ECE7FFF73A
:1042900079FF20B3B378154A13F0800F03F00801BB
:1042A00011D041B1D2F8A836EB6001230375022387
:1042B0000374C560D9E703F00F03142101FB032346
:1042C000D3F80836F0E711B1D2F8A837ECE703F0DD
:1042D0000F03142101FB0323D3F80837E4E770BD73
:1042E000B8ED000008EE00000FFE00000070024074
:1042F00070B5064688B01822002102A808F094F98B
:104300003378013B052B24D8DFE803F0950317171A
:10431000851903238DF814300024FFF733FF03467B
:10432000B8B100228DF81820047500F10C02DDE907
:10433000050182E8030018461EE00423EAE7B1788D
:104340000846FFF793FE837A044623B1013B022B14
:104350005DD908B070BD0B06F57812D5002D49D196
:10436000FFF710FF03460028F3D0012284F8225003
:10437000027503220274DC60FFF7A2FEFFF7DAFE8B
:10438000E7E75DB1012D35D1FFF7FCFE03460028BC
:10439000DFD084F8215005750574ECE7FFF7F2FED5
:1043A00005460028D5D00123037502230374C46099
:1043B00004F10C01B07808F096FB014648B11F4AA1
:1043C0001F4B2048D21AD208920142F0010207F096
:1043D00045F91D4AE168B2F8C8328B4206D95B1A2A
:1043E000A2F8C83203F008FE2846C5E70023A2F869
:1043F000C832F9E7124A114B14489B1ADB089B019B
:104400000A4643F00103294607F03CF9A1E730468C
:10441000FFF704FF9DE7684603F0C8FD9DF80130F3
:10442000052B04D19DF8003013F0600F91D0084B9C
:104430000593012471E702246FE700BF08EE000036
:10444000B8ED00003BFE0000B02800200FFE000089
:10445000342A0020022810B5014605D80F4B1C5CF9
:10446000FFF790FE60B910BD0D4A0E4B0E48D21AF0
:10447000D2089201BDE8104042F0010207F0EEB808
:10448000002202750473FFF71BFE084B1B7F002BF5
:10449000E9D0BDE81040FFF74DBE00BF4800010065
:1044A00008EE0000B8ED00005BFE0000B028002020
:1044B0002DE9F341DFF8188100240026002764F07D
:1044C0007F00C0B2FFF7D2FD03690546CBB900F10A
:1044D0001001CDE90067402240460AF0D8F80028D4
:1044E0000FDA374A374B3848D21AD208920142F0D5
:1044F0000102214607F0B2F86FF00B0002B0BDE8F0
:10450000F0812846013407F047FE082CD7D1DFF8A8
:10451000C080002400260027E0B2FFF7A7FD036952
:1045200005464BB900F11001CDE900674022404635
:104530000AF0ADF80028D4DB2846013407F02CFE41
:10454000082CE9D12149D1F870310C46BBB90022C1
:104550000023CDE900231E484FF4806201F5B871B5
:104560000AF095F800280ADA1549164B1948C91AB5
:10457000C908890141F0010107F063F8BCE716485A
:1045800007F00AFED4F8B432A3B900220023CDE923
:10459000002312490E484FF480620AF078F8002890
:1045A00008DA0749074B0E48C91AC908890141F0C2
:1045B0000101E1E70B4807F0EFFD00209EE700BF97
:1045C00008EE0000B8ED000076FE0000B0280020E4
:1045D000F000002098FE0000102A0020642B00202C
:1045E000B9FE0000542B00202DE9FF47A74FA84B30
:1045F000DFF8BCA2A74CFF1A8046FF080022002368
:10460000504605F00BF8064610B904B0BDE8F08737
:10461000637F317D06F1040933B9002900F09B80E6
:1046200048460AF080FAE9E7042900F27A81DFE8D7
:1046300011F09200050016014101620118F8043CD6
:104640003BB9F3689448597ABA0142F0010207F085
:1046500005F8337CF568032BE2D8DFE803F0023875
:104660006368AE6908220021304607F0DDFF8B4AFF
:10467000D2F880343370D2F884347370D2F888342E
:10468000D2F88C1443EA01237380D2F89034D2F824
:10469000941443EA0123B380D2F89834D2F89C24CE
:1046A00043EA0223F3800823EB60687A2B68002139
:1046B00098473378DB0906D1F38823B1A4F8C832D0
:1046C00003F09AFCACE70023A4F8C832A8E795F8F9
:1046D0002130002BA4D095F82030002BA0D000264C
:1046E00085F821604FF0FF324FF0FF336C4885F8BA
:1046F000206007F067FDAB6901936B68CDE9023676
:1047000001A9687A03F074FA664B9842014605D015
:10471000BA01654842F0010206F0A0FF604807F0C8
:1047200039FD7DE72B680121687A984778E7AB7AF5
:1047300073B995F823305BB94FF0FF324FF0FF3378
:10474000574807F03FFD03F083FC554807F022FD72
:104750002B680221E8E7327B042A3FF661AFDFE8ED
:1047600002F05A032567730003F0F6F905460028A6
:104770007FF456AF03F032F9BFF35B8F4B4901234F
:1047800051E8002F002A03D141E800300028F7D17A
:10479000BFF35B8F7FF444AF41F8105C41F8085CD5
:1047A0006069E360143906F05CFB39E7002565F0C9
:1047B0007F00C0B2FFF75AFC037A13B1407A03F0CE
:1047C00039FE0135082DF2D194F868311BB194F807
:1047D000690103F02FFE0025E8B2FFF747FC037ADA
:1047E00013B1407A03F026FE0135082DF4D194F878
:1047F000AC321BB194F8AD0203F01CFE012003F0B3
:1048000085F9012363772368002B3FF409AF00216A
:104810000220984704E70025657703F097FDFFF72E
:1048200063FC2368002B3FF4FBAE29460420F0E72D
:10483000002B3FF4F5AE03F0A1FD2368002B3FF4FD
:10484000EFAE00210520E4E72268002A3FF4E8AE3D
:10485000002B3FF4E5AE002106209047E0E608F18A
:104860000C054FF0FF334FF0FF32284607F0AAFC4B
:10487000FFF71EFE284607F08DFC58F8203C002B61
:104880003FF4CEAE00210120C3E700BF08EE0000D8
:10489000B8ED0000B0280020DBFE000000700240F0
:1048A000DC2800200000AD0B01FF0000C82800201C
:1048B000F002002094F8AC3263B1012584F8C552AF
:1048C00084F8C452FFF75EFC60B9B9011848294367
:1048D00006F0B7FE58F8203C002B3FF4A1AE0021B3
:1048E0000A2096E7134A05750574C260FFF7E8FBD6
:1048F000FFF720FCEEE7B90141F001010E4806F098
:10490000A0FE08F066F803F021FD03F05DF8FFF764
:1049100029FCFFF7CDFD08F055F8084803F026F90B
:104920007EE6BA01064842F0010206F097FE77E6FD
:1049300027FF0000542B00203BFF0000F142000045
:1049400052FF000038B5204C257F002D36D11F497D
:104950001F484FF0FF334FF4806205F0F9FA1D4B0A
:104960002562C4E9093504F12C0009F0C8FE284687
:10497000FFF7EEFA2A4660610121272001F0F6FADE
:10498000154803F0F3F8154B984219D108F01AF8BE
:10499000FFF78EFD054608B901232377104B1B68EE
:1049A0000BB1FFF7C7FB4FF08043D3F83834DB0778
:1049B00002D50020FFF74EFD284638BD0025FBE755
:1049C0006FF00405F8E700BFB028002090680020D1
:1049D00030050020E9450000F14200000000AD0B69
:1049E000F002002038B54FF0FF324FF0FF33264879
:1049F00007F0E8FBFFF7B6FB002464F07F00C0B2CD
:104A0000FFF734FB054610300AF08DF801342422FC
:104A10000021284607F008FE082CEED10024E0B261
:104A2000FFF724FB054610300AF07DF801342422FC
:104A30000021284607F0F8FD082CF0D113480AF0B1
:104A400072F824220021124807F0EEFD11480AF006
:104A50006AF824220021104807F0E6FD03F07CF8F4
:104A600008B103F073FC03F06FF808B102F0ACFF7B
:104A7000FFF73AFB07F0ADFF0848002404772C301D
:104A800007F088FB204638BDDC280020202A0020C3
:104A9000102A0020642B0020542B0020B028002076
:104AA000064B1A7F32B15B7F002B0CBF6FF01200F8
:104AB000002070476FF01200704700BFB028002040
:104AC00008B5034602781B7902F00F006BB958B1A4
:104AD0001349144B1448C91AC908890141F001014E
:104AE00006F0AFFD4FF0FF3008BD082808D90C498B
:104AF0000C4B0E48C91AC908890141F00101EFE7C2
:104B0000012B0AD1130708D40549064B0848C91AD6
:104B1000C908890141F00201E2E70020E4E700BF93
:104B200008EE0000B8ED000069FF000088FF0000FB
:104B3000A7FF0000144B1B7F10B5014603B3047898
:104B40002046FFF793FA98B144720B798372498833
:104B5000416023070FD44B1E0B420CD00B490C4B6A
:104B60000C48C91AC908890141F0010106F069FD24
:104B70006FF0150003E0204607F0B0FF002010BDE5
:104B80006FF01200FBE700BFB028002008EE000025
:104B9000B8ED0000BDFF0000164B1A7F10B50146AE
:104BA0002AB35B7F1BB3FFF761FA0446E0B1837A57
:104BB000012B0FD007D9023B012B07D9A369E36171
:104BC0000020E06010BD03F04BFAF7E7084603F061
:104BD000BFF9F3E70849094B0948C91AC90889010F
:104BE00041F0010106F02DFD6FF01500EAE76FF0CE
:104BF0001200E7E7B028002008EE0000B8ED000042
:104C0000E5FF000038B50D4B1A7F05467AB15B7F92
:104C10006BB1FFF72BFA68B115F008040AD12846EA
:104C200003F0B8F9284603F057FC204638BD6FF072
:104C30001200FBE76FF01500F8E700BFB028002076
:104C400038B50B4B1A7F05460C465AB15B7F4BB10A
:104C5000FFF70CFA48B141B1284603F081F9207002
:104C6000002038BD6FF01200FBE76FF01500F8E789
:104C7000B0280020F8B5104E327F04469AB1FFF7F5
:104C8000F5F9054690B1230702D4204603F082F9D6
:104C90002F7A77B9707F01232B7218B1204603F069
:104CA000C9FB3846F8BD6FF01200FBE76FF0150046
:104CB000F8E76FF04400F5E7B02800200D4B1A7FAD
:104CC00010B501466AB15B7F5BB1FFF7CFF90446CF
:104CD00050B1037A5BB1084603F080FB00202072DC
:104CE00010BD6FF01200FBE76FF01500F8E76FF0F2
:104CF0004400F5E7B02800202DE9FF47DFF80C81DC
:104D00001F4698F81C30064689461446002B6ED084
:104D100098F81D30002B6AD0030613D5FFF7A6F9CB
:104D2000054678B190F808A0BAF1000F0DD1314ACC
:104D3000314B3248D21AD208920142F00102314678
:104D400006F08CFC6FF0150412E04FF0FF324FF0CC
:104D5000FF3308F12C0007F035FA95F8222002F015
:104D6000FF034AB108F12C0007F014FA6FF00A04AF
:104D7000204604B0BDE8F0876A68A869944284BF01
:104D80001446534685F823302246494607F021FC55
:104D9000EC6007B13C60AC7A4CB903F069F986422B
:104DA00005D003F055F9164807F0F4F9E0E70123C0
:104DB00085F82230AB69019301A9EB6802930024C6
:104DC0003046039402F014FF0E4B98420146EAD09D
:104DD000094B084A85F82240D21AD20892010A48A3
:104DE00042F0010206F03AFC6FF00404DBE76FF0DA
:104DF0001204BDE708EE0000B8ED00000700010056
:104E0000DC2800200000AD0B26000100B0280020A7
:104E10002DE9F0411D46274B90461A7F07460E4666
:104E2000002A44D05B7F002B41D0030615D411B972
:104E3000B8F1000F11D13846FFF718F9044660B1F8
:104E4000037A6BB91C4A1D4B1D48D21AD208920135
:104E500042F00102394606F001FC6FF0150015E042
:104E60004FF0FF3317484FF0FF3207F0ABF9E3681C
:104E700043451F4628BF474656B9B8F1000F07D132
:104E800005B12B600F4807F085F90020BDE8F081DF
:104E9000E1693A46304607F09CFBE3693B44E36135
:104EA000E368DB1BE360002DECD02F60EAE76FF0D6
:104EB0001200EBE7B028002008EE0000B8ED00007B
:104EC00007000100DC28002070B5244D2B7F01462F
:104ED000002B3FD06B7F002B3CD003060FD4FFF795
:104EE000C5F8044658B1037A63B91D4A1D4B1E48E4
:104EF000D21AD208920142F0010206F0AFFB6FF025
:104F000015001AE04FF0FF334FF0FF3205F12C008F
:104F100007F058F9E368C3B90126A36984F8206053
:104F2000E36194F8213083B1FFF72CF930B905F132
:104F30002C0007F02FF96FF00B0070BD0675C460F0
:104F40000674FFF7BDF8FFF7F5F8084807F022F9F7
:104F50000020F2E76FF01200EFE700BFB02800205A
:104F600008EE0000B8ED000007000100DC2800207A
:104F700008B5074B1B7F2BB1FFF778F828B101600C
:104F8000002008BD6FF01200FBE76FF01500F8E796
:104F9000B0280020014B1860704700BFB0280020E7
:104FA00008B5074B1B7F23B1FFF760F820B14068BD
:104FB00008BD6FF01200FBE76FF01500F8E700BFC7
:104FC000B0280020821C084B22F07F42C3F8402505
:104FD000D3F80425904200D17047D3F80405821C11
:104FE00022F07F42F2E700BF00100140074B002291
:104FF0001A601B68064A074BD3F840051368C01AAD
:1050000020F07F400344136005F09CB8401101403C
:105010007C2B00200010014038B5104D104B0024AF
:10502000C5F808451C601B680E4B4FF40032C3F8EE
:1050300080214FF48033C5F804332246012111202A
:1050400000F094FF112000F05FFF074A0123136076
:1050500002202B60FEF784FF204638BD001001407F
:105060004011014000E100E008100140F8B52B4B71
:105070002B4C1968D4F804252A4D521AB0F1FF3F81
:1050800008BF284622F07F43120236D4013820EAB6
:10509000E070A842A8BF284601331844A84294BF34
:1050A0000D184D194FF48031C4F80813D4F80425B5
:1050B000D4F840351C4E00279B1A376023F07F43FD
:1050C0003068012B22F07F40C4F84005C4F8441337
:1050D00004D10F2009F093FC37603368134B4FF471
:1050E0000032C3F88021D4F804052B1A23F07F4343
:1050F000012B04D1FFF766FF0BE00020CCE725F081
:105100007F43C4F84035D4F804052D1A023D2B0224
:10511000F0D44FF48033C4F80433F8BD7C2B002066
:1051200000100140FFFF7F004011014000E100E05E
:105130004FF02002EFF3118382F31188BFF36F8FDA
:10514000064AD2F80405064A1268801A20F07F4009
:1051500083F31188BFF36F8F704700BF00100140C9
:105160007C2B00204FF02003EFF3118283F3118892
:10517000BFF36F8F0649074B0868D3F8043582F3F5
:105180001188BFF36F8F1B1A23F07F4318447047B9
:105190007C2B002000100140014805F021B900BF20
:1051A000B4EF000008B530B143683BB1006804F0CB
:1051B000EFF9002008BD6FF4E040FBE70048F9E795
:1051C000EA8FFFFF10B5044618B90B4B0B485B681C
:1051D0009847616859B111F00201206808D0014672
:1051E000074804F033F9002323600023636010BDF7
:1051F000142207F019FAF8E74C01002056000100CC
:10520000802B002010B5044618B9144B14485B6875
:1052100098476368CBB92368BBB912484FF0FF3297
:105220004FF0FF33214604F0DFF808B923681BB9BB
:105230000A4B0D485B68984720681422002107F04C
:10524000F3F9636843F002036360206809F057FADA
:10525000636843F00103636010BD00BF4C01002090
:1052600056000100802B00207C00010008B568B1C9
:10527000436873B100684FF0FF334FF0FF3204F022
:105280000FF9054B002818BF184608BD6FF4E04021
:10529000FBE70248F9E700BFE98FFFFFEA8FFFFF56
:1052A00008B5064906484023142209F00DFABDE866
:1052B00008400449044805F0E9B800BF9C2B0020D1
:1052C000802B0020CCEF0000BCEF000010B5114C8B
:1052D000114AA2610323C4E90433104BE36122663F
:1052E0004FF480630E4A0F49236262660023102246
:1052F000E01DA3626362E3622367E3666367A266FD
:1053000007F03AF90849204607F036F92023A3713F
:1053100010BD00BF9C300020A9000100FE580020F5
:10532000EE580020B2000100B60001002DE9F84F50
:10533000234F4FF0180B14460BFB00720646936A7E
:10534000556AAB42884634D8D2F820A0AAEB0509AA
:1053500009F1FF32944211D84FF0180906FB099366
:105360003B44224658684146284407F032F909FB7D
:1053700006762C4474620120BDE8F88F13449C42E9
:105380001BD800FB0BBBBB444A46DBF804002C4493
:10539000284407F01EF9B4EB0A0406D0DBF8040039
:1053A000224608EB090107F014F9182000FB0676E5
:1053B000E0E7013B5B1BA342CED20020DCE700BF4D
:1053C0009C300020F8B5184C182300FB033503FB74
:1053D00000402544C46A012C0F4616460FD0022C0B
:1053E0001AD0F4B9284606F03AFF864205D832466C
:1053F0003946284606F041FF34462046F8BD284687
:1054000006F02DFF8642344628BF04462246394620
:10541000284606F032FFF0E72846BDE8F84006F0DF
:1054200048BF0024E9E700BF9C300020034B18224E
:1054300002FB00339A6A586A801A70479C30002039
:10544000F7B5284D286883685B6C03B198472868D6
:1054500083685B6BDBB19847C8B1234C234E286847
:1054600083689B699BB101220DF1070198470128D0
:105470000DD12368A3B933685BB91D491D4B1E4884
:10548000C91AC908890141F0010106F0DAF803B030
:10549000F0BD71681A6832608B4200D1726023607F
:1054A00016499DF807700A88B2F5007F084606D2B3
:1054B0002368134402F1010CA1F800C01F720A2FE7
:1054C000CDD1236802880E495A6000221A604E68C6
:1054D00026B9C1E9003302802260BFE733604B6028
:1054E000F9E700BF6C3500204C310020443100202A
:1054F000E0ED0000B8ED0000BD000100C438002060
:1055000064350020044B10B5044618688368E1B286
:105510005B689847204610BD6C350020F8B50646FC
:105520000B4615464FF02002EFF3118C82F31188E1
:10553000BFF36F8F194C216849B1194A50688842EE
:1055400005D000200860506898B9C2E90011154ADA
:10555000116829B1576808681060B94208BF5060E7
:105560008CF31188BFF36F8F216029B90020286068
:10557000F8BD01605160EAE748680831F6D05C1E6A
:105580008442A8BF04462246304607F022F8002392
:10559000335501232B60E018EAE700BF50310020AB
:1055A0004431002064350020224B37B50025C3E983
:1055B0000055214B214AC3F8085203F502711360CC
:1055C000196051601E481F4C03F0E6FD206028B9A9
:1055D000206848B94FF0FF3003B030BD2846FDF7D2
:1055E000F3FC0028F4D0F5E7836823B19B6C13B17A
:1055F000154900229847206883685B6B53B1984730
:1056000040B1206883689B6923B101220DF1070135
:105610009847F5E70D4A2068002313808268926A54
:105620001C4602B1904784F31188BFF36F8F0020AE
:10563000D2E700BF643500205431002044310020FF
:105640006DFD00006C35002041540000C43800207E
:1056500038B54368044698188028154608D8064887
:10566000184406F0B6FF62682A446260002038BD24
:105670004FF00040FBE700BFFE5C00202DE9F04149
:10568000D2B040F60613ADF80C30DFF82481414B60
:10569000D8F800005C68818803783F4F3F4EC4F320
:1056A000072242EA0422428001330A02037042EADE
:1056B00011220023437082800821009341F22102CD
:1056C00005F0F3FA01220346ADF8100000922146DE
:1056D00041F22102384605F0E8FA336840BAADF8E5
:1056E00010005B6803A80221984704F10A035BBA23
:1056F0000DF11201022206A80225ADF8123006F0C3
:1057000068FFD8F80010ADF8125008220DF11A0009
:1057100006F05FFFBDF81200083006AB80B2ADF8AE
:10572000120022463946184406F053FFBDF8120015
:10573000204406AB80B2ADF812002A4604A91844F2
:1057400006F047FFBDF812302B449BB205AAADF816
:1057500012300093AD2106AB26A8FBF7CFFF0599C9
:105760003368ADF8121026A85B6889B29847336891
:105770000B485B68294698470A4B0B490B48C91AE6
:10578000C908890141F0030105F05BFF52B0BDE893
:10579000F08100BF18010020FE5C00207035002061
:1057A000F6000100B8ED0000C8ED0000F9000100AE
:1057B0007435002038B50C4C0C4D4FF0FF322146AB
:1057C000284608F0ABFE0A49204606F0D2FD002329
:1057D0000022204608F080FE2146284608F0ADFE53
:1057E000BDE83840FFF74ABF8835002078350020F3
:1057F000FC0001002DE9FF410C681B4F1B4B0238D8
:105800000D46C4F50071009003AA38190131FBF769
:10581000F7FF044628BB2B68039A1344022B2B6026
:105820001BD939880E0246EA1126B6B2023B9E42C7
:1058300013D14FF001080346CDF8008041F2210258
:105840003146B81C05F031FA38B9022E05D92B685B
:10585000023B1F442B60BC704446204604B0BDE8A8
:10586000F0814FF0FF34F8E77E5D0020815F00207B
:105870002DE9F04F0729B3B0044660D9027812F041
:10588000FD055CD14288130243EA1223A1F1080608
:105890009BB2B34253D38288AC4BAD49186013021C
:1058A00043EA122383802A46AA484D6008F007FE87
:1058B000A388012B40F0BD81E3792BB1012B00F0CF
:1058C0009D80FFF777FF3AE04FF0FF32A249A148F1
:1058D000A24DDFF8B082DFF8B09208F01FFEA049B9
:1058E0009D4806F046FD9C484FF0FF3208A908F09D
:1058F00012FE002600273146002004F0E3FE07A92F
:10590000C0B2FEF785F9044658B92023014610AA13
:10591000079806F038FB109BAB4216D0079806F0AC
:1059200031FB002F08BF012E0CD108A98A4808F0CE
:1059300004FE8949874808F000FEFFF79FFE33B058
:10594000BDE8F08F01260027D5E740230DF1600A5E
:105950000193CDE90344079B0294CDF800A010AA5F
:1059600021462046FAF782FE0028D7D1079806F094
:1059700009FB4FF0FF320CA908A808F0CFFD414603
:105980000CA806F0F6FC32463B460CA808F0A4FD35
:1059900049460CA806F0EDFC9DF85410504606F060
:1059A000C6FC32AB441C18444FF02E0B9DF855102A
:1059B00000F868BC0AEB040006F0B9FC32AB2044E6
:1059C000441C1844BDF8561000F868BC0AEB0400EB
:1059D00006F0ADFC32AB044423440134169903F8BD
:1059E00068BC0AEB040006F0A2FC51460CA806F0C5
:1059F000C0FC0CA908A808F0A0FD92E718AA31463F
:105A000004F108000C9500F00DFA78BB0324554B07
:105A1000554A5648D21AD208920142F00302214652
:105A200005F01CFE4FF0FF324B494A4808F076FD66
:105A30004F49494806F09DFC47482246E31708F0C5
:105A40004BFD4CB94B49444806F093FC4A4B424845
:105A50001A68234608F038FD3F493E4808F06DFDBE
:105A6000FFF70CFE0C9806F08DFA68E74FF0FF3A4E
:105A70004FF0000B319C18AB2A462846D046D94639
:105A80002F46A24227D1B9F1000F08BFB8F1FF3F5E
:105A9000BCD0002FBAD0002104F014FE0CA9C0B273
:105AA000FEF7B6F80028B1D158EA0903324E0AD100
:105AB0000C9B30609A680023524573EB0B03A5DB07
:105AC0002E4BC3F800A033680021494508BF434569
:105AD00019D000249BE7197C032904D8DFE801F0E2
